:020000040800F2
:10000000201300209D010008610C0008C9080008A9
:100010005D0C000883020008FD1F000800000000BE
:100020000000000000000000000000005D14000857
:10003000E505000800000000DD0C00084D15000873
:10004000B7010008B7010008B7010008B7010008B0
:10005000B7010008B7010008B7010008B7010008A0
:10006000B7010008B7010008B7010008B701000890
:10007000B7010008B7010008B70100082104000813
:10008000B7010008B7010008B7010008B701000870
:10009000B7010008B7010008B7010008B701000860
:1000A000B7010008B7010008B7010008B701000850
:1000B000B7010008B7010008B7010008B701000840
:1000C000B7010008B7010008B7010008B701000830
:1000D000B7010008B7010008E91500081D1600085F
:1000E000B7010008B7010008B7010008B701000810
:1000F000B7010008B7010008B7010008B701000800
:10010000B7010008B7010008B7010008B7010008EF
:10011000B7010008B7010008B7010008B7010008DF
:10012000B7010008B7010008B7010008B7010008CF
:10013000B7010008B7010008B7010008B7010008BF
:10014000B7010008B7010008B7010008B7010008AF
:10015000B7010008B7010008B7010008B70100089F
:10016000B7010008B7010008B7010008B70100088F
:10017000B7010008B7010008B7010008B70100087F
:10018000B7010008B7010008DFF80CD000F03CF818
:10019000004800478D2500082013002006488047AE
:1001A00006480047FEE7FEE7FEE7FEE7FEE7FEE75C
:1001B000FEE7FEE7FEE7FEE75915000889010008A3
:1001C00010B5002200E0521C835C8C5CA34201D17C
:1001D000002BF8D1D8B2E1B2401A10BD30B50B46B1
:1001E000014600202022012409E021FA02F59D4267
:1001F00005D303FA02F5491B04FA02F52844151E3B
:10020000A2F10102F1DC30BD064C074D06E0E068CA
:1002100040F0010394E8070098471034AC42F6D34D
:10022000FFF7B6FFF85500081856000870B58C188F
:1002300010F8015B15F0070301D110F8013B2A11FA
:1002400006D110F8012B03E010F8016B01F8016BE7
:100250005B1EF9D12B0705D40023521E0DD401F8E3
:10026000013BFAE710F8013BCB1A921C03E013F8AC
:10027000015B01F8015B521EF9D5A142D8D30020E1
:1002800070BD00BFFEE770B506460C4604F0800066
:10029000802808D104F07F0000EB800106F58E7005
:1002A00000EBC10507E004F07F0000EB800106F5DC
:1002B0005D7000EBC10504F07F00287004F0800041
:1002C000C00968702946304601F010FD002070BD5D
:1002D0002DE9F04106460D4690461F4605F0800088
:1002E000802808D105F07F0000EB800106F58E70B4
:1002F00000EBC10407E005F07F0000EB800106F58C
:100300005D7000EBC10405F07F00207005F08000F7
:10031000C0096070C4F80880E770607808B1207880
:10032000E080022F01D1002020712146304601F0EB
:1003300085FC0020BDE8F0812DE9F04105460E4620
:100340001746984606F07F0000EB800105F55D70CA
:1003500000EBC104E760C4F814800020A061607065
:1003600006F07F002070E878012800D1276120780E
:1003700020B92146284601F085FB03E021462846A6
:1003800001F021FD0020BDE8F08170B506460C4665
:1003900004F08000802808D104F07F0000EB800189
:1003A00006F58E7000EBC10505E004EB840106F54F
:1003B0005D7000EBC1050120A87004F07F0028707B
:1003C000C4F3C01068702946304601F0CAFC002012
:1003D00070BD2DE9F04107460D461646984605F0DA
:1003E0007F0000EB800107F58E7000EBC104012057
:1003F000607005F07F002070E66026610020A0613B
:10040000C4F81480207820B92146384601F03AFB20
:1004100003E02146384601F0D6FC0020BDE8F0811B
:1004200010B52C492C4800F08FF8002851D02B48EB
:100430000068002840D000BF274800F07AF8002864
:10044000FAD12449244800F04FF82548006825498E
:10045000886022480068B0F5803F02D21F480068DB
:1004600001E04FF6FF701F4908611B4800F08EF84D
:100470000121194800F052F8194800681749096825
:10048000B1F5803F02D21549096801E04FF6FF71CE
:1004900000EB41001249086010480068B0F5803F49
:1004A00002D20E48006801E04FF6FF700B49096860
:1004B000081A0A4908600CE00021074800F02EF8ED
:1004C0000449054800F010F800210548006800F0D4
:1004D00097F810BD20000020706002402401002029
:1004E00028010020A40300200246094B9A4201D2B1
:1004F000084801E00648103801F000531BB1064BD4
:100500000B40C36002E0044B0B4083607047000067
:1005100010640240006002407D0F7D0F21B102682F
:1005200042F00102026003E0026822F00102026070
:100530007047014600200A6802F001020AB101205A
:1005400000E000207047000030B503460A46002056
:1005500000240B4DAB4201D20A4901E00849103991
:1005600002F000550DB14C6800E00C68064D2C40BF
:1005700004EA02050DB1012000E0002030BD0000BA
:1005800010640240006002407D0F7D0F10B5002214
:100590000268134B1A40CC680B6823434C69234311
:1005A0008C692343CC6923430C6A23434C6A23435D
:1005B0008C6A23434C6B23438C6B23431A430260A6
:1005C000426922F00702D1E90B3423431A43426106
:1005D0000B6943604B6883608B68C36010BD00008B
:1005E0003F801CF07047000001B504490098086086
:1005F00000BF024800680028FBD108BD08000020A9
:100600007047000051B18200A2F1C042126842F06E
:1006100001038200A2F1C042136009E08200A2F14E
:10062000C0421268034B1A408300A3F1C0431A6012
:1006300070470000FEFF0F00D0E901121143C268AD
:100640001143026911434269114382691143C2692E
:100650001143026A1143426A1143826A1143C26A1A
:100660001143026B114302689200A2F1C042116073
:10067000816808290BD101688900A1F1C04109688E
:1006800041F0400201688900A1F1C0410A60416B5C
:100690000968426B526841EA0211426B926841EA72
:1006A0000221426B928941EA0241426B128A41EA7D
:1006B0000251426B127D41EA0261426B9269114321
:1006C0000268521C9200A2F1C0421160C16AB1F5E9
:1006D000804F1BD1816B0968826B526841EA02111D
:1006E000826B926841EA0221826B128A41EA0251CE
:1006F000826B127D41EA0261826B9269114302684A
:100700009200A2F1C042C2F8041107E06FF07042FB
:1007100001688900A1F1C041C1F804217047F0B51A
:100720000A4600210023002400BF3DE0012505FA10
:1007300001F3156805EA03049C4234D105684F00B3
:100740000326BE40B543056015794E00B5400668E6
:10075000354305601579012D02D01579022D16D18A
:1007600085684F000326BE40B543856055794E002D
:10077000B540866835438560456801268E40B5439F
:100780004560456896798E40B6B235434560C56888
:100790004F000326BE40B543C560D5794E00B54035
:1007A000C6683543C560491C1029BFD3F0BDF0B5FC
:1007B000002300244D07ED0E02FA05F3CE1000F1E0
:1007C000200555F826504E07F70E0F26BE40B543BC
:1007D000CF1000F1200646F82750CE1000F120057A
:1007E00055F8265045EA0304CE1000F1200545F8DF
:1007F0002640F0BD70B506462E480078012856D038
:100800002D480068B0F5006F02D100202A49086029
:100810002948006829490968884203D100202549F0
:10082000087070BD2448006824490968884206D9C8
:1008300021480068C0F500602149086006E01F48B3
:1008400000681D490968401A1D4908601C48006875
:10085000B0F5007F11D91848008884B24FF40075B4
:100860001548006800F500701349086014480068D6
:10087000A0F50070124908600FE00F48008884B2AC
:100880000F48008885B20C4800680D490968084483
:100890000949086000200A490860012005490870DC
:1008A000084802192B4681213046FFF792FD00BF10
:1008B000B7E700008C0100208401002080010020A7
:1008C000880100201B07002000BFFEE730B504466A
:1008D000002540F23F11002000F098F900F0B4F933
:1008E00000BF03E04FF0D04044806D1CB5F5963F4B
:1008F000F8D330BD30B5054640F23F1409E0202260
:100900002146284600F0A8F8064800688088201A8A
:1009100084B2601C80B20349096889888842EEDA93
:1009200030BD00005C0100201CB50121782000F0E2
:10093000D7F94CF23370009002208DF804008DF846
:10094000050000208DF806008DF8070069463E4836
:10095000FFF7E5FE0C2200213B48FFF728FF0C22A1
:1009600001213948FFF723FF0C2204213648FFF705
:100970001EFF0C2205213448FFF719FF0C22082125
:100980003148FFF714FF0C2209212F48FFF70FFF12
:100990000C220A212C48FFF70AFF0C220E212A48BC
:1009A000FFF705FF0C220F212748FFF700FF4FF646
:1009B0008070009069462548FFF7B1FE0C220721A0
:1009C0002248FFF7F4FE0C2208212048FFF7EFFE33
:1009D0000C2209211D48FFF7EAFE0C220A211B48C0
:1009E000FFF7E5FE0C220B211848FFF7E0FE0C2272
:1009F00011461648FFF7DBFE0C220D211348FFF7C6
:100A0000D6FE0C220E211148FFF7D1FE0C220F2139
:100A10000E48FFF7CCFE0120009069460C48FFF716
:100A20007EFE0C2200210A48FFF7C1FE4FF48060D1
:100A3000009069460748FFF772FE0C220A2105481C
:100A4000FFF7B5FE1CBD0000000C02400010024084
:100A5000001402400018024070B505460E461446C8
:100A6000A4F12000C4B20748006801680548006886
:100A7000C088604301EB40023146284600F02AF866
:100A800070BD00005C01002070B506460C4640F2C7
:100A90003F150AE0227829463046FFF7DDFF0C4873
:100AA00000688088281A85B2641C681C80B20849D6
:100AB00009688988884201DB012000E00020217854
:100AC00009B1012100E0002108400028E2D170BDF9
:100AD0005C0100202DE9F0430746894616460024B4
:100AE0000025A046B8464946404600F08FF800BFB2
:100AF00039E000F0A9F8002527E01E48006880884A
:100B00000C2190FBF1F0C10080208840284136F88C
:100B10001410084020B91748006880880C280ADDA6
:100B200036F814000121A940084048B9114800686E
:100B300080880C2804DD1048008800F081F803E06C
:100B40000E48008800F07CF86D1C0A480068808818
:100B5000A842D2D808F101001FFA80F84946404661
:100B600000F054F8641C03480068C088A042C0D854
:100B7000BDE8F0835C0100206201002060010020DC
:100B800000B597B00121084600F0CAF80520019091
:100B90000020029009200390002004900590069008
:100BA000079004200890002009900A9010200B90D4
:100BB00000200C900D900E900F9010904FF48050EC
:100BC0001190002012901390149001A81590169087
:100BD00008A8FFF731FD01210420FFF713FD17B02E
:100BE00000BD000001480068704700005C01002063
:100BF00001464FF0D04001804088704701B5BDF8F4
:100C000000000149088008BD6201002010B50346BC
:100C10000C461946202000F01CF82146212000F047
:100C200018F810BD01490860704700005C01002001
:100C300001B5BDF800000149088008BD6001002031
:100C40004FF0D0414880704722204FF0D0410880BB
:100C500070474FF0D04210805180704700BFFEE7D0
:100C60007047000070B5002100230F22C4781CB328
:100C7000174C246804F4E064C4F5E064C4F307216D
:100C8000C1F10404E3B20A4144789C40E1B28478A3
:100C9000144021430C07210E0E4C05786155047851
:100CA00004F01F050124AC4005786D11AD0005F17D
:100CB000E025C5F8004109E0047804F01F0501248F
:100CC000AC40054D0678761145F8264070BD000011
:100CD0000CED00E000E400E080E100E0704700007F
:100CE00029B1064A12680243044B1A6004E0034A21
:100CF00012688243014B1A6070470000303802408E
:100D000029B1064A12680243044B1A6004E0034A00
:100D100012688243014B1A60704700003438024069
:100D200029B1064A12680243044B1A6004E0034AE0
:100D300012688243014B1A60704700003838024045
:100D400029B1064A12680243044B1A6004E0034AC0
:100D500012688243014B1A6070470000403802401D
:100D600029B1064A12680243044B1A6004E0034AA0
:100D700012688243014B1A607047000044380240F9
:100D8000F0B5002100220024022500260223324F64
:100D90003F6807F00C0121B1042905D0082937D19B
:100DA00005E02E4F076036E02D4F076033E02A4FF5
:100DB0003F1F3F68C7F38056274F3F1F3F6807F02C
:100DC0003F036EB1264FB7FBF3F7DFF88CC0ACF1F1
:100DD000040CDCF800C0CCF3881C07FB0CF40CE01E
:100DE0001E4FB7FBF3F7DFF870C0ACF1040CDCF872
:100DF00000C0CCF3881C07FB0CF4174F3F1F3F6863
:100E0000C7F301477F1C7D00B4FBF5F7076002E0E4
:100E1000124F076000BF00BF0F4F3F6807F0F0019F
:100E20000909104F7A5C0768D74047600A4F3F684E
:100E300007F4E051890A0B4F7A5C4768D740876016
:100E4000054F3F6807F46041490B064F7A5C4768DD
:100E5000D740C760F0BD0000083802400024F4000D
:100E600040787D016401002030B10749096841F0F4
:100E70000401054A116005E00349096821F00401F5
:100E8000014A1160704700000008065008B50020B4
:100E90000090FFF749FDFFF773FE052001F006FB08
:100EA0000020FFF7A5FE009049F22031009888420B
:100EB0007ED14FF40041E520FFF7CBFE0121002059
:100EC000FFF7C7FE4FF480710120FFF7C2FE4FF419
:100ED000E0610220FFF7BDFE41F230010320FFF781
:100EE000B8FE00210420FFF7B4FE40F202210820E2
:100EF000FFF7AFFE00210920FFF7ABFE00210A201B
:100F0000FFF7A7FE00210C20FFF7A3FE00210D2014
:100F1000FFF79FFE00210F20FFF79BFE002110200E
:100F2000FFF797FE00211120FFF793FE002112200A
:100F3000FFF78FFE00211320FFF78BFE142001F036
:100F4000B5FA41F2B0711020FFF783FE40F237117D
:100F50001120FFF77EFE052001F0A8FA40F23911BA
:100F60001220FFF776FE052001F0A0FA4FF4E851B9
:100F70001320FFF76EFE13212920FFF76AFE0520DC
:100F800001F094FA00212020FFF763FE00212120C8
:100F9000FFF75FFE06213020FFF75BFE40F20111F4
:100FA0003120FFF756FE03213220FFF752FE00E00A
:100FB0007BE04FF483713520FFF74BFE40F60231A2
:100FC0003620FFF746FE40F202313720FFF741FEA0
:100FD00040F207713820FFF73CFE07213920FFF768
:100FE00038FE4FF4C0613C20FFF733FE40F20B2186
:100FF0003D20FFF72EFE00215020FFF72AFEEF21B3
:101000005120FFF726FE00215220FFF722FE40F27A
:101010003F115320FFF71DFE4FF41C516020FFF7D6
:1010200018FE01216120FFF714FE00216A20FFF75E
:1010300010FE00218020FFF70CFE00218120FFF729
:1010400008FE00218220FFF704FE00218320FFF725
:1010500000FE00218420FFF7FCFD00218520FFF722
:10106000F8FD10219020FFF7F4FD00219220FFF7FA
:10107000F0FD03219320FFF7ECFD4FF488719520DC
:10108000FFF7E7FD00219720FFF7E3FD00219820FF
:10109000FFF7DFFD41F218010320FFF7DAFD40F210
:1010A00073110720FFF7D5FDF9E049F225310098CB
:1010B0008842F9D101210020FFF7CBFD4FF4807168
:1010C0000120FFF7C6FD4FF4E0610220FFF7C1FDEC
:1010D00041F218010320FFF7BCFD00210420FFF7B7
:1010E000B8FD40F202210820FFF7B3FD00210920DE
:1010F000FFF7AFFD00210A20FFF7ABFD00210C2018
:10110000FFF7A7FD00210D20FFF7A3FD00210F2011
:10111000FFF79FFD00211020FFF79BFD002111200C
:10112000FFF797FD00211220FFF793FD0021132008
:10113000FFF78FFD142001F0B9F941F2B0711020D2
:10114000FFF787FD40F237111120FFF782FD0520E0
:1011500001F0ACF940F239111220FFF77AFD0520B9
:1011600001F0A4F94FF4E8511320FFF772FD1321A9
:101170002920FFF76EFD052001F098F900212020BD
:10118000FFF767FD00212120FFF763FD07213020D5
:10119000FFF75FFD40F202313120FFF75AFD40F2C8
:1011A00005113220FFF755FD40F206213520FFF7EB
:1011B00050FD40F608013620FFF74BFD40F20621B6
:1011C0003720FFF746FD40F204513820FFF741FD7C
:1011D00007213920FFF73DFD40F205113C20FFF7C4
:1011E00038FD40F608013D20FFF733FD0021502077
:1011F000FFF72FFDEF215120FFF72BFD002152209B
:10120000FFF727FD40F23F115320FFF722FD4FF477
:1012100027416020FFF71DFD01216120FFF719FD27
:1012200000216A20FFF715FD00218020FFF711FD46
:1012300000218120FFF70DFD00218220FFF709FD2D
:1012400000218320FFF705FD00218420FFF701FD29
:1012500000218520FFF7FDFC10219020FFF7F9FC0D
:1012600000219220FFF7F5FC03219320FFF7F1FC0A
:101270004FF488719520FFF7ECFC00219720FFF7D1
:10128000E8FC00219820FFF7E4FC41F2180103205C
:10129000FFF7DFFC40F233110720FFF7DAFC0248CA
:1012A000FFF7C0FC08BD00003C0100203EB504462D
:1012B0000D4625208DF8000000208DF801008DF8E6
:1012C000020001208DF803006846FFF7CBFC2E4991
:1012D00051F824102D4A52F8242041EA020001213D
:1012E000FFF7FEFC2A4951F824000121FFF738FDE1
:1012F000284B13F81420284B33F81410274B53F8BD
:101300002400FFF754FA264B13F81420254B33F82A
:101310001410254B53F82400FFF749FA00208DF8EC
:101320000A0001208DF80B0002208DF808001F48EC
:1013300030F81400019002208DF80900174951F887
:10134000240001A9FFF7EBF902208DF808001848E6
:1013500030F814000190144951F8240001A9FFF756
:10136000DEF9144951F82400294600F0DFF911494B
:1013700051F82400012100F070F9012240F22551BA
:101380000D4800F0ADF93EBDB42B0008B82B0008A5
:10139000B02B0008C42B0008C02B0008140100204B
:1013A000C62B0008C22B000818010020BC2B000827
:1013B000BE2B000810010020001001401CB504469F
:1013C0000E4951F824000121FFF78AFC0C4830F83F
:1013D0001400009001208DF8040000208DF8060014
:1013E00001208DF8070002208DF80500054951F80D
:1013F00024006946FFF793F91CBD0000742B000818
:101400006C2B0008F4000020034931F81010034A47
:1014100052F82020518370476C2B0008F400002004
:10142000034931F81010034A52F820201183704705
:101430006C2B0008F4000020064951F8201049697F
:10144000054A32F810205140024A52F820205161DA
:1014500070470000F40000206C2B0008704700006B
:101460000CB50020019000903448006840F48030B2
:101470003249086000BF3148006800F40030009035
:101480000198401C0190009818B90198B0F5A04F40
:10149000F1D12A48006800F4003010B1012000901A
:1014A00001E0002000900098012846D123484030F8
:1014B000006840F0805021494031086020480068B1
:1014C00040F440401E4908601C48083000681B4931
:1014D000083108600846006840F40040086008468B
:1014E000006840F4A05008601648091F0860081FF3
:1014F000006840F08070091F086000BF0F48006856
:1015000000F000700028F9D040F205700E49086024
:101510000A480830006820F00300084908310860D4
:101520000846006840F00200086000BF0348083029
:10153000006800F00C000828F8D10CBD003802400B
:101540000070004019544007003C024010B500F004
:101550003FF800F035F810BD10B51548006840F4AC
:101560007000134908601348006840F001001149F9
:10157000086000200F49083108600E4800680E49D5
:1015800008400C4908600D48091D0860081F0068E4
:1015900020F48020091F0860002006490C310860F3
:1015A000FFF75EFF4FF0006001498039086010BD11
:1015B00088ED00E000380240FFFFF6FE1030002406
:1015C000024800680A3001490860704700000020A6
:1015D0000448006820B103480068401E01490860C3
:1015E000704700000800002010B500F071FF10BD2A
:1015F00010B504460BE014F8011B074800F005F98C
:1016000000BF8021044800F034F80028F9D0207889
:101610000028F0D110BD00000044004010B540F299
:101620002551084800F032F818B10021084600F0B2
:10163000D7FD0821034800F01CF810B1014800F064
:10164000DFF810BD0010014001F40072B2F5007F18
:1016500000D100BFCA430280704721B1828942F4A1
:101660000052828104E082894DF6FF731A40828124
:10167000704702460020B1F5007F00D100BF1388FB
:101680000B400BB1012000E00020704770B502460E
:10169000002400230025002040F66A16B14200D144
:1016A00000BFC1F3421501F01F03012606FA03F340
:1016B000012D02D19689334006E0022D02D1168A0F
:1016C000334001E0968A33400C12012606FA04F4F6
:1016D0001688344013B10CB1012000E0002070BD29
:1016E000F0B50346002400260025002040F66A17C6
:1016F000B94200D100BF1846C1F3421401F01F06E1
:10170000012707FA06F5012C01D10C3004E0022C68
:1017100001D1103000E014301AB107682F43076080
:1017200002E00768AF430760F0BD00002DE9FF4706
:1017300005460E460024A14600BFA046B08900B170
:1017400000BF2C8A24F44054F08804432C82AC89D6
:1017500041F20C608443B0883189084371890843A1
:101760000443AC81AC8A24F44074B0890443AC8255
:101770006846FFF705FB2048854202D01F48854296
:1017800002D1DDF80C9001E0DDF80890A88900F4A2
:10179000004040B109EBC90000EB09103168490075
:1017A000B0FBF1F707E009EBC90000EB0910316865
:1017B0008900B0FBF1F76420B7FBF0F004012009C9
:1017C000642101FB1078A88900F4004040B1322068
:1017D00000EBC800B0FBF1F000F00700044308E0A4
:1017E000322000EB08106421B0FBF1F000F00F0094
:1017F00004432C81BDE8FF87001001400014014024
:1018000001468888C0F308007047C1F3080282804F
:10181000704770B504460D4680212046FEF7B5FDA1
:1018200000212046FEF7B1FD204600F0D6F970BD3C
:101830002DE9F04104460E4615460027C4F894539E
:10184000C4F89053032140F2111001552B46324643
:1018500000212046FEF770FD3846BDE8F0812DE9F5
:10186000F04104460E4615460027C4F83C51C4F822
:101870003851022140F2111001552B463246002109
:101880002046FEF7A6FD3846BDE8F081014600205F
:1018900002E0421CD0B2491C0A78002AF9D17047F4
:1018A0002DE9F04104460D4617460026FCB12046BE
:1018B000FFF7ECFF022101EB400038803A78304618
:1018C000711CCEB22A5403223046711CCEB22A5467
:1018D0000AE014F8012B3046711CCEB22A540022C3
:1018E0003046711CCEB22A5420780028F1D1BDE8D0
:1018F000F081000070B505460C462DB92246064918
:1019000006A0FFF7CDFF04E02246034903A0FFF73E
:10191000C7FF014870BD00001C0400205643502042
:10192000436F6E6669670000024612200880014816
:1019300070470000D400002070B505460C462DB954
:101940002246064906A0FFF7ABFF04E02246034902
:1019500003A0FFF7A5FF014870BD00001C04002094
:1019600056435020496E74657266616365000000DD
:10197000024604200880014870470000F000002063
:1019800070B505460C462246024903A0FFF788FFC2
:10199000004870BD1C04002053544D6963726F658C
:1019A0006C656374726F6E696373000070B5054691
:1019B0000C462DB92246064906A0FFF771FF04E048
:1019C000224603490CA0FFF76BFF014870BD0000E1
:1019D0001C04002053544D333220566972747561D3
:1019E0006C20436F6D506F727420696E20485320D5
:1019F0006D6F64650000000053544D33322056690A
:101A0000727475616C20436F6D506F727420696ED3
:101A1000204653204D6F64650000000070B50546F8
:101A20000C462DB92246064906A0FFF739FF04E00F
:101A30002246034907A0FFF733FF014870BD0000AD
:101A40001C040020303030303030303030353042FF
:101A5000000000003030303030303030303530432E
:101A60000000000002464320088001487047000043
:101A7000C80100200246432008800148704700004A
:101A80000B020020FEB5024600200024002502952E
:101A900000954D78012D52D193691D6802951D69FD
:101AA00000954D6955B9009D25F07F050095009D75
:101AB00025F4C01505F50025009516E08E684D69E2
:101AC000B54207D98D684D610E7A009D66F3060513
:101AD000009504E00E7D009D66F306050095009DCF
:101AE00025F4C01505F500250095009D1D61D578EC
:101AF000012D06D10F7802F1180555F827500E690F
:101B00006E61029D25F0806505F180650295029D5C
:101B100025F0004505F100450295029D1D60D57830
:101B2000002D59D14D69002D56D00E780125B540B4
:101B30002C4315696D6B2543166975634CE00E786F
:101B400002F1540555F826502D6802950E7802F1E1
:101B5000540555F826502D6900954D695DB90E7AEA
:101B6000009D66F306050095009D25F4C01505F55A
:101B7000002500950CE08D684D610E7A009D66F39E
:101B800006050095009D25F4C01505F50025009576
:101B90000F7802F1540555F82750009E2E61D57834
:101BA000012D06D10F7802F1540555F827500E6922
:101BB0006E61029D25F0806505F180650295029DAC
:101BC00025F0004505F1004502950F7802F1540516
:101BD00055F82750029E2E60FEBD0EB500210191E2
:101BE000019921F04041A1F180410191019921F435
:101BF000C01101F500210191019921F07F011831F7
:101C00000191019A416D0A61C178012915D1002124
:101C1000009100F2CC51426D5161416D0968009113
:101C2000009921F0004101F1004100914FF0802125
:101C30000091009A416D0A6000BF0EBD3CB502469E
:101C400000200024019400944C78012C0CD10D78D4
:101C500002F1180454F825300D780124AC40009DA1
:101C600064F30F0500950BE00D7802F1540454F86D
:101C700025300D780124AC40009D64F31F4500958C
:101C80001C680194019CC4F3C034E4B90D89019C23
:101C900065F30A040194CD78019C65F393440194A3
:101CA0008D79019C65F399540194019C24F0805432
:101CB00004F180540194019C24F4004404F5004490
:101CC0000194019C1C600C78012C08D1D47A34B9A1
:101CD0001469E46B009D2C431569EC6305E01469FD
:101CE000E469009D2C431569EC613CBD3CB502469E
:101CF00000200024019400944C78012C0CD10D7824
:101D000002F1180454F825300D780124AC40009DF0
:101D100064F30F0500950BE00D7802F1540454F8BC
:101D200025300D780124AC40009D64F31F450095DB
:101D3000019C24F400440194019C1C600C78012C4B
:101D400008D1D47A34B91469E46B009DAC431569A9
:101D5000EC6305E01469E469009DAC431569EC612E
:101D60003CBD38B503460A46002000240094547850
:101D7000012C18D1157803F1180454F825100C68BB
:101D80000094009CE40F2CB1009C24F0804404F1EA
:101D900080440094009C24F4001404F50014009482
:101DA000009C0C600EE0157803F1540454F82510E3
:101DB0000C680094009C24F4001404F500140094B2
:101DC000009C0C6038BDFEB505460C460026002779
:101DD000002002900190607801287ED1217805F1E1
:101DE000180050F8210000680290217805F11800D1
:101DF00050F8210000690190606948B901986FF3BB
:101E0000120001900121019861F3DC40019017E07C
:101E10006169019861F3120001906069401EA16838
:101E20000844B0FBF1F1019861F3DC400190E078E7
:101E3000012805D1019820F0C04000F10050019028
:101E4000227805F1180050F8220001990161E87824
:101E5000012807D1227805F1180050F822002169E5
:101E600041610DE0E07801280AD0606940B1217835
:101E7000012000FA01F72869406B3843296948635B
:101E8000E078012813D12869806800900098C0F399
:101E9000002030B9029820F0005000F1005002906C
:101EA00005E0029820F0805000F1805002900298E6
:101EB00020F0806000F180600290029820F00040E5
:101EC00000F100400290227805F1180050F822003D
:101ED00002990160E078012800E008E06CD1A08A56
:101EE00083B222782846E16800F068F864E021783F
:101EF00005F1540050F8210000680290217805F1A6
:101F0000540050F8210000690190606950B9A1683F
:101F1000019861F3120001900121019861F3DC4006
:101F2000019013E0A068401E61690844A168B0FBFD
:101F3000F1F1019861F3DC4001900198C0F3C940D0
:101F4000A1684843019960F312010191227805F1DB
:101F5000540050F8220001990161E878012806D167
:101F6000227805F1540050F8220021694161E0789F
:101F700001280ED1607930B1029820F0005000F1B4
:101F80000050029005E0029820F0805000F180504F
:101F90000290029820F0806000F180600290029828
:101FA00020F0004000F100400290227805F154003A
:101FB00050F82200029901603046FEBD2DE9F04143
:101FC00004460026E078B0B900270020DD1C4FEA67
:101FD000E57805EB98784FEAA80704F1D00555F8A5
:101FE00022C000BF04E00D68CCF80050401C091D61
:101FF000B842F8D300BF3046BDE8F08100BFFEE72D
:1020000010B50446BCB94FF4E1303C4908600020EB
:102010008880C8804FF4C0600881002088810C202F
:1020200048810020FFF742F9012240F2255134484F
:10203000FFF756FB5FE03348007920B1012806D056
:1020400002280ED108E000202C49C8800EE04FF491
:1020500040502A49C88009E04FF400502749C88001
:1020600004E00020FFF7CCFF022010BD00BF254890
:10207000407920B1012806D002280ED108E00020C6
:102080001E4908810EE04FF480601C49088109E078
:102090004FF4C0601949088104E00020FFF7B0FF49
:1020A0000220E2E700BF17488079072802D00828FD
:1020B00010D103E000201149888010E00F4800890A
:1020C00018B900200D49888003E04FF480500B4977
:1020D000888004E00020FFF793FF0220C5E700BFDF
:1020E0000848006805490860002088810C20488164
:1020F0000020FFF7DBF80020B7E700009403002082
:10210000001001409C00002070B505460C461646A4
:10211000042D15D007DC7DB1012D0ED0022D0DD080
:10212000032D3FD10BE0202D0BD0212D1FD0222DD0
:1021300036D0232D36D134E035E034E033E032E0E0
:1021400031E02078617840EA0120A17840EA01403E
:10215000E17840EA016015490860207908716079EA
:102160004871A07988710120FFF74AFF1BE00F48F2
:10217000007820700D480088000A60700B480068E5
:10218000000CA07009480068000EE0700748007954
:10219000207106484079607104488079A07102E09E
:1021A00001E000E000BF00BF002070BD9C000020E7
:1021B00070B505460E4600240BE0295D0748FFF781
:1021C00024FB00BF80210548FFF753FA0028F9D00F
:1021D000641CB442F1D3002070BD00000010014027
:1021E00070B504460D4613488079072809D1124876
:1021F000FFF706FB00F07F001049114A126888546F
:102200000AE00C488079082806D10B48FFF7F8FA55
:102210000A490B4A1268885409480068401C08495A
:10222000086008460068B0F5006F01D10020086022
:10223000002070BD9C000020001001401B07002002
:10224000800100200020704708B54FF4E1301249AA
:10225000086000208880C8804FF4C060088100209A
:1022600088810C2048810020FFF720F8012240F2ED
:1022700025510A48FFF734FA25208DF80000002088
:102280008DF801008DF8020001208DF803006846EA
:10229000FEF7E8FC002008BD940300200010014078
:1022A0000FB4084B10B504A902AA039800F01CF85B
:1022B000044602A9002000F0F3F8204610BC5DF8A7
:1022C00014FB0000A124000802E008C8121F08C186
:1022D000002AFAD170477047002001E001C1121FA7
:1022E000002AFBD1704700002DE9FF4F8BB09A46C2
:1022F0000F460546002606E025280BD052460D99CC
:1023000090476D1C761C28780028F5D10FB0304618
:10231000BDE8F08F0024A0460122604900E004439C
:1023200015F8013F203B02FA03F00842F7D1287864
:102330002E2817D115F8010F44F004042A280ED0D6
:102340006FF02F022878A0F1300109290AD808EB94
:10235000880102EB410100EB01086D1CF2E757F820
:10236000048B6D1C287869283ED006DC0028CDD06F
:1023700063280BD0642804D136E0732810D0752868
:102380004BD052460D999047761C85E017F8040B08
:102390008DF8000000208DF80100E946012003E0DF
:1023A00057F8049B4FF0FF3061074FF0000401D451
:1023B0000AE0641C44450DDA8442FADB19F8041083
:1023C0000029F6D106E0641C8442FCDB19F80410F5
:1023D0000029F8D1264404E019F8010B52460D9962
:1023E0009047641EF8D257E001CF4FF00A0B002847
:1023F00002DA40422D2102E0210504D52B218DF87F
:102400002410012103E0E10705D02021F7E70DF1B9
:10241000200908910CE00021F9E701CF4FF00A0BE9
:10242000F9E75946FDF7DAFE01F1300209F8012D0E
:102430000028F6D1ADEB090000F1200B600701D4B4
:102440004FF00108D84502DDA8EB0B0000E00020AA
:102450008046002406E009A85246005D0D99904789
:10246000641C761C08988442F5DB04E03020524658
:102470000D999047761CB8F10001A8F10108F5DC30
:1024800005E019F8010B52460D999047761CBBF1F7
:102490000001ABF1010BF4DC6D1C34E709280100ED
:1024A0000A68531C0B6010707047000001B581B0C2
:1024B00000200090054901984843009002E00098F0
:1024C000401E009000980028F9D10CBDA0860100A4
:1024D00010B540F225510948FFF7D8F868B1074810
:1024E000FFF78EF9C4B22346054A06A11046FFF74E
:1024F000D7FE00200549087000BF10BD0044004011
:102500009402002025732563000000007A0000205B
:1025100070B5002429E01848005D0D280BD016483E
:10252000005D0A2807D01448035D2A4613A12846F7
:10253000FFF7B6FE17E01048005D0A2813D12846C1
:1025400000F01EF90646401C58B1304600F08CF9E8
:102550000BA20CA10848FFF7A3FE01200A4908704E
:1025600070BD0020FCE7601C84B20348005D0028B9
:10257000D1D100BFF4E70000940200202573256349
:1025800000000000257300007A0000208AB006A831
:10259000FEF7F6FB64220798B0FBF2F1481EB0F19B
:1025A000807F00D31BE0481E4FF0E022506150179F
:1025B0000F22002804DB13071C0E644B1C5406E09A
:1025C00013071D0E624B00F00F04241F1D5500BFA2
:1025D00000204FF0E02290610720106100BF012130
:1025E0004020FEF78DFB0120FEF73EFC0121480450
:1025F000FEF7A6FB01210846FEF772FB0722022127
:102600005448FEF7D4F8072203215248FEF7CFF8CA
:1026100000208DF8060001208DF8070002208DF8BB
:1026200004000420009002208DF805006946494806
:10263000FEF775F802208DF8040008200090694626
:102640004448FEF76CF84FF4165002900020ADF8A5
:102650000C00ADF80E00ADF81000ADF814000C2021
:10266000ADF8120002A93C48FFF760F801213A4892
:10267000FEF7F3FF012240F225513748FFF730F80B
:102680002620002809DB00F01F02012191404209A9
:10269000920002F1E022C2F8001100BF40212E4852
:1026A000FEF7D2FFFEF7F2FB0020FEF787FE0120C7
:1026B000FEF784FE0220FEF781FE0320FEF77EFE79
:1026C0000020FEF703F90020FEF798FA4FF6FF709E
:1026D000FEF7AEFA0120214908700020FEF7F6F857
:1026E0001FA0FEF785FF3220FDF77EFF00F05EF8A9
:1026F000C820FDF779FF0020FEF7E8F80120174910
:1027000008701BA0FEF774FF3220FDF76DFF00F08C
:102710004DF8C820FDF768FF16E040F225510E483D
:10272000FEF7B4FF68B91548007850B901200B498D
:1027300008700020FEF7CAF8FFF7EAFE08B900F0BB
:1027400035F83220FDF750FFE7E7000000E400E035
:1027500018ED00E000000240004400407900002035
:1027600041542B4E414D4520425430350D0A000056
:1027700041542B52455345540D0A00007A00002065
:1027800070B50546002409E0074850F82410284693
:10279000FDF716FD08B1204670BD641C082CF3DB64
:1027A0004FF0FF30F8E700007C00002070B52648AD
:1027B000007800B170BD002424A225A12548FFF7B0
:1027C0006FFD33E02448005D0D280BD02248005DEA
:1027D0000A2807D02048035D1E4A20A11046FFF7B3
:1027E0005FFD21E01C48005D0A281DD1FEF7FAF9C3
:1027F000C0881C490978484385B22846FEF77AF814
:10280000FEF7F0F9C08817490A780978491C154B7A
:102810001970504385B20F492846FEF735F90BA2CF
:102820000BA10C48FFF73CFD601C84B20A48005D18
:102830000028C7D105A206A10748FFF731FD0120F6
:102840000149087000BFB5E77A00002000000000D1
:10285000257300000E0000209402002025732563DC
:10286000000000007900002010B50446082C2BD28F
:10287000DFE804F0040E12161A1E22260020FEF7CE
:10288000CFFD0020FEF7D8FD3220FDF7ADFE1BE0A6
:102890000120FEF7C5FD17E00220FEF7C1FD13E0A1
:1028A0000320FEF7BDFD0FE00020FEF7ADFD0BE0BD
:1028B0000120FEF7A9FD07E00220FEF7A5FD03E0D9
:1028C0000320FEF7A1FD00BF00BF10BD2DE9F041C0
:1028D00006460F461D480078012834D11C48006880
:1028E00018B90020194908702DE019480068B0F5A2
:1028F000007F11D91748008884B24FF4007515483D
:10290000006800F500701349086011480068A0F5E0
:1029100000700F4908600FE00E48008884B20C4830
:10292000008885B20B4800680949096808440949CC
:102930000860002006490860074802192B468121DB
:102940003046FDF746FD0020BDE8F0818C010020F7
:1029500088010020840100201B07002070B5044678
:102960000D4605EB850104F55D7000EBC100008BA1
:1029700086B2074831460269064890474FF4007313
:10298000044A01212046FDF7D7FC002070BD00005D
:10299000A40000201B05002070B504460D468121CF
:1029A0002046FDF770FC01212046FDF76CFC8221DA
:1029B0002046FDF768FC024948688047002070BD4A
:1029C000A400002010B5044608480068FF280AD07B
:1029D0000748836807480849026804480068984720
:1029E000FF2002490860002010BD00009001002077
:1029F000A4000020940100207801002070B5054655
:102A00000E4602231A0281212846FDF761FC0223AB
:102A10001A0201212846FDF75BFC032308228221CC
:102A20002846FDF755FC084C0220207100206071FB
:102A30000649086880474FF40073054A012128467B
:102A4000FDF77AFC002070BDD4000020A400002017
:102A50001B05002010B50446074801680068401CAB
:102A6000054A1060282905D100201146086020463B
:102A7000FDF7C0FE002010BD500200202DE9F041FE
:102A800005460C463A26334F207800F0600070B3BC
:102A9000202826D1E088D8B1207800F0800058B1F5
:102AA000E28860782C498B682C499847E2882B494A
:102AB0002846FEF7D4FE11E0607829490860E088D6
:102AC00028490860E28825492846FEF7B1FE05E05E
:102AD0006078214900228B68114698470020BDE8A4
:102AE000F08121462846FEF794FE0220F7E7FFE733
:102AF0006078062804D00A2816D00B2826D119E0C1
:102B000060882121B1EB202F08D1124F0937E088CE
:102B10003A2801DD3A2000E0E08806463246394690
:102B20002846FEF79CFE11E001220F492846FEF7D9
:102B300096FE0BE0A078012803DAA0780A49086025
:102B400003E021462846FEF764FE00BF00BF0020D8
:102B5000C5E70000D1010020A4000020780100207A
:102B600090010020940100207401002080000001E9
:102B700000020004200000002000000020000000EF
:102B80002000000001000020000100000100000002
:102B9000040000000001000001000020000100000E
:102BA0000200080000000D000800060028001700C1
:102BB00010000000010000000100000000020004FD
:102BC00009000A00070007000000000000000000E4
:102BD00000000000000000000000000000000000F5
:102BE00000000000000000000000000000000000E5
:102BF0000000000000000000000080018001800152
:102C000080018001800180018001800180018001BC
:102C100080018001000000008001800100000000B0
:102C2000000000000000000000000000CC00CC000C
:102C3000CC00CC00CC00CC00000000000000000064
:102C40000000000000000000000000000000000084
:102C50000000000000000000000000000000000074
:102C600000000000600C600C600C30063006FE1F97
:102C7000FE1F300638071803FE1FFE1F1803180337
:102C80008C018C018C01000000008000E003F80F33
:102C90009C0E8C1C8C188C009800F801E007800EAC
:102CA000801C8C188C189C18B80CF00FE003800066
:102CB00080000000000000000000000000000E186E
:102CC0001B0C110C11061106110311039B018E013F
:102CD000C038C06C60446044304430441844186CC0
:102CE0000C380000000000000000E001F00338078D
:102CF000180618063003F001F000F8009C310E337E
:102D0000061E061C061C063FFC73F0210000000096
:102D10000000000000000000000000000C000C009B
:102D20000C000C000C000C00000000000000000073
:102D30000000000000000000000000000000000093
:102D400000000000000000000000000200038001FD
:102D5000C000C00060006000300030003000300073
:102D6000300030003000300060006000C000C00063
:102D70008001000300020000000020006000C0008D
:102D80008001800100030003000600060006000623
:102D90000006000600060006000300038001800113
:102DA000C0006000200000000000000000000000E3
:102DB00000000000C000C000D806F807E0013003A2
:102DC00038070000000000000000000000000000C4
:102DD00000000000000000000000000000000000F3
:102DE0000000000080018001800180018001FC3F23
:102DF000FC3F800180018001800180010000000013
:102E000000000000000000000000000000000000C2
:102E100000000000000000000000000000000000B2
:102E2000000000000000000000008001800100019F
:102E30000001800000000000000000000000000011
:102E40000000000000000000000000000000000082
:102E5000E007E007000000000000000000000000A4
:102E60000000000000000000000000000000000062
:102E70000000000000000000000000000000000052
:102E800000000000000000000000C000C0000000C2
:102E900000000000000000000000000C000C000614
:102EA0000006000600030003000380038001800188
:102EB0008001C000C000C000600060000000000091
:102EC00000000000000000000000E003F007380EE2
:102ED000180C0C180C180C180C180C180C180C18D2
:102EE0000C180C18180C380EF007E0030000000056
:102EF0000000000000000000000000018001C0018F
:102F0000F001980188018001800180018001800129
:102F100080018001800180018001800100000000AB
:102F200000000000000000000000E003F80F180C93
:102F30000C180C1800180018000C00060003800183
:102F4000C000600030001800FC1FFC1F00000000E3
:102F500000000000000000000000E001F807180E6B
:102F60000C0C0C0C000C0006C003C007000C001871
:102F700000180C180C18180CF807E00300000000EB
:102F800000000000000000000000000C000E000F18
:102F9000000F800DC00C600C600C300C180C0C0C79
:102FA000FC3FFC3F000C000C000C000C000000007B
:102FB00000000000000000000000F80FF80F1800EB
:102FC00018000C00EC03FC071C0E001C0018001875
:102FD00000180C181C0C180EF807E0030000000085
:102FE00000000000000000000000C007F00F381CC7
:102FF000181818000C00CC03EC0F3C0E1C1C0C180D
:103000000C180C18181C380EF007E0030000000024
:1030100000000000000000000000FC1FFC1F000C6E
:1030200000060006000380038001C001C000E0002C
:1030300060006000700030003000300000000000D0
:1030400000000000000000000000E003F007380E60
:10305000180C180C180C3806F007F007180C0C1890
:103060000C180C180C18380CF80FE00300000000C6
:1030700000000000000000000000E003F007380E30
:103080001C0C0C180C180C181C1C381EF81BE01912
:103090000018000C000C1C0EF807F00100000000E6
:1030A0000000000000000000000000000000000020
:1030B000000000008001800100000000000000000E
:1030C00000000000000000008001800100000000FE
:1030D00000000000000000000000000000000000F0
:1030E00000000000800180010000000000000000DE
:1030F00000000000000000008001800100010001CC
:10310000800000000000000000000000000000003F
:1031100000000000000000000010001C800FE00311
:10312000F8001800F800E003800F001C00100000F9
:10313000000000000000000000000000000000008F
:103140000000000000000000F81F00000000000068
:10315000F81F000000000000000000000000000058
:10316000000000000000000000000000000000005F
:10317000000000000000000008003800F001C00757
:10318000001F0018001FC007F001380008000000F1
:1031900000000000000000000000E003F80F180C21
:1031A0000C180C180018000C000600038001C00069
:1031B000C000C00000000000C000C000000000000F
:1031C000000000000000000000000000E0071818E8
:1031D0000420C229224A114409440944094409220D
:1031E0001113E20C024004201818E0070000000050
:1031F0000000000000000000000080038003C00603
:10320000C006C006600C600C301830183018F83F4B
:10321000F83F1C700C600C6006C006C00000000087
:1032200000000000000000000000FC03FC0F0C0C7C
:103230000C180C180C180C0CFC07FC0F0C180C309C
:103240000C300C300C300C18FC1FFC070000000088
:1032500000000000000000000000C007F01F383828
:103260001C300C7006600600060006000600060012
:10327000060006600C701C30F01FE0070000000024
:1032800000000000000000000000FE03FE0F060E1C
:1032900006180618063006300630063006300630AE
:1032A000063006180618060EFE0FFE03000000008A
:1032B00000000000000000000000FC3FFC3F0C008C
:1032C0000C000C000C000C00FC1FFC1F0C000C0080
:1032D0000C000C000C000C00FC3FFC3F0000000048
:1032E00000000000000000000000F83FF83F180058
:1032F0001800180018001800F81FF81F1800180010
:10330000180018001800180018001800000000002D
:1033100000000000000000000000E00FF83F3C78D3
:103320000E6006E007C00300030003FE03FE03C0B7
:1033300007C006C00EC03CF0F83FE00F00000000E0
:10334000000000000000000000000C300C300C30C9
:103350000C300C300C300C30FC3FFC3F0C300C308F
:103360000C300C300C300C300C300C3000000000F5
:1033700000000000000000000000800180018001CA
:103380008001800180018001800180018001800135
:103390008001800180018001800180010000000027
:1033A000000000000000000000000006000600060B
:1033B00000060006000600060006000600060006DD
:1033C0000006180618063807F003E00100000000A8
:1033D0000000000000000000000006300618060C87
:1033E000060606038601C60066007600DE008E0132
:1033F00006030606060C06180630066000000000EC
:103400000000000000000000000018001800180074
:1034100018001800180018001800180018001800EC
:103420001800180018001800F81FF81F000000000E
:10343000000000000000000000000EE01EF01EF082
:103440001EF036D836D836D836D866CC66CC66CCA0
:10345000C6C6C6C6C6C6C6C686C386C300000000AA
:10346000000000000000000000000C301C303C3068
:103470003C306C306C30CC30CC308C310C330C3375
:103480000C360C360C3C0C3C0C380C3000000000A8
:1034900000000000000000000000E007F81F1C38DA
:1034A0000E70066003C003C003C003C003C003C0A6
:1034B00003C006600E701C38F81FE0070000000013
:1034C00000000000000000000000FC0FFC1F0C3892
:1034D0000C300C300C300C300C18FC1FFC070C00AE
:1034E0000C000C000C000C000C000C000000000094
:1034F00000000000000000000000E007F81F1C387A
:103500000E70066003E003C003C003C003C003C025
:1035100007E006630E3F1C3CF83FE0F700C00000E8
:1035200000000000000000000000FE0FFE1F063833
:103530000630063006300638FE1FFE070603060674
:10354000060C06180618063006300660000000005B
:1035500000000000000000000000E003F80F1C0C59
:103560000C180C180C001C00F803E00F001E0038AB
:10357000063006300E301C1CF80FE007000000007B
:1035800000000000000000000000FE7FFE7F8001C0
:103590008001800180018001800180018001800123
:1035A0008001800180018001800180010000000015
:1035B000000000000000000000000C300C300C3057
:1035C0000C300C300C300C300C300C300C300C301B
:1035D0000C300C300C301818F81FE0070000000009
:1035E000000000000000000000000360063006300C
:1035F00006300C180C180C18180C180C380E300665
:103600003006700760036003C001C00100000000C5
:10361000000000000000000000000360C361C361FF
:10362000C3616633663366336633663366336C1B59
:103630006C1B6C1B2C1A3C1E380E380E0000000050
:10364000000000000000000000000FE00C701830C7
:103650003018700C600EC00780038003C003E006C2
:10366000700C301C18180C300E6007E000000000D1
:103670000000000000000000000003C006600C30E5
:103680001C383818300C6006E007C0038001800148
:103690008001800180018001800180010000000024
:1036A00000000000000000000000FC7FFC7F0060C4
:1036B00000300018000C000600038001C00060000C
:1036C000300018000C000600FE7FFE7F00000000A6
:1036D00000000000000000000000E003E0036000C4
:1036E00060006000600060006000600060006000DA
:1036F00060006000600060006000600060006000CA
:103700006000E003E00300000000300030006000D3
:1037100060006000C000C000C000C00180018001E6
:103720008001000300030003000600060000000003
:1037300000000000000000000000E003E0030003C0
:103740000003000300030003000300030003000361
:103750000003000300030003000300030003000351
:103760000003E003E003000000000000C001C0010E
:1037700060036003600330063006180C180C00006C
:103780000000000000000000000000000000000039
:103790000000000000000000000000000000000029
:1037A0000000000000000000000000000000000019
:1037B00000000000000000000000FFFFFFFF00000D
:1037C000000000000000000000000C000C000C00D5
:1037D0000C000C000C0000000000000000000000C5
:1037E00000000000000000000000000000000000D9
:1037F00000000000000000000000000000000000C9
:1038000000000000F003F8071C0C0C0C000FF00F78
:10381000F80C0C0C0C0C1C0FF80FF018000000003A
:103820000000000000000000000018001800180050
:1038300018001800D803F80F380C181818181818A2
:10384000181818181818380CF80FD80300000000C2
:103850000000000000000000000000000000000068
:1038600000000000C003F007300E180C180018000C
:1038700018001800180C300EF007C00300000000FC
:1038800000000000000000000000001800180018F0
:1038900000180018C01BF01F301C18181818181832
:1038A000181818181818301CF01FC01B0000000052
:1038B0000000000000000000000000000000000008
:1038C00000000000C003F00F300C1818F81FF81F9C
:1038D000180018003818301CF00FC0070000000056
:1038E00000000000000000000000800FC00FC000BA
:1038F000C000C000F007F007C000C000C000C0005A
:10390000C000C000C000C000C000C0000000000037
:1039100000000000000000000000000000000000A7
:1039200000000000E00DF80F180E0C0C0C0C0C0C35
:103930000C0C0C0C0C0C180EF80FE00D000C0C0C01
:103940001C06F807F001000000001800180018001D
:1039500018001800D807F80F381C1818181818186D
:103960001818181818181818181818180000000037
:1039700000000000000000000000C000C0000000C7
:1039800000000000C000C000C000C000C000C000B7
:10399000C000C000C000C000C000C00000000000A7
:1039A00000000000000000000000C000C000000097
:1039B00000000000C000C000C000C000C000C00087
:1039C000C000C000C000C000C000C000C000C000F7
:1039D000C000F8007800000000000C000C000C0093
:1039E0000C000C000C0C0C060C038C01CC006C00C1
:1039F000FC009C018C030C030C060C0C0000000066
:103A000000000000000000000000C000C000C00076
:103A1000C000C000C000C000C000C000C000C000A6
:103A2000C000C000C000C000C000C0000000000016
:103A30000000000000000000000000000000000086
:103A4000000000007C3CFF7EC7E383C183C183C1CB
:103A500083C183C183C183C183C183C100000000CE
:103A60000000000000000000000000000000000056
:103A7000000000009807F80F381C181818181818BC
:103A80001818181818181818181818180000000016
:103A90000000000000000000000000000000000026
:103AA00000000000C003F00F300C18181818181888
:103AB000181818181818300CF00FC0030000000078
:103AC00000000000000000000000000000000000F6
:103AD00000000000D803F80F380C18181818181830
:103AE000181818181818380CF80FD80318001800F0
:103AF000180018001800000000000000000000007E
:103B000000000000C01BF01F301C181818181818EF
:103B1000181818181818301CF01FC01B00180018AF
:103B2000001800180018000000000000000000004D
:103B300000000000B007F0037000300030003000DB
:103B40003000300030003000300030000000000055
:103B50000000000000000000000000000000000065
:103B600000000000E003F003380E180C3800F003EA
:103B7000C007000C180C380EF007E003000000002E
:103B80000000000000000000000000008000C000F5
:103B9000C000C000F007F007C000C000C000C000B7
:103BA000C000C000C000C000C007800700000000C7
:103BB0000000000000000000000000000000000005
:103BC00000000000181818181818181818181818D5
:103BD000181818181818381CF01FE01900000000F9
:103BE00000000000000000000000000000000000D5
:103BF000000000000C18180C180C180C30063006C9
:103C00003006600360036003C001C00100000000D3
:103C100000000000000000000000000000000000A4
:103C200000000000C141C141C3616363636363631A
:103C30003636363636361C1C1C1C1C1C0000000098
:103C40000000000000000000000000000000000074
:103C5000000000001C38381C300C60066003600354
:103C6000600360036006300C381C1C380000000044
:103C70000000000000000000000000000000000044
:103C8000000000001830301830187018600C600CFC
:103C9000E00CC006C0068003800380038001800121
:103CA000C001F000700000000000000000000000F3
:103CB00000000000FC1FFC1F000C00060003800138
:103CC000C000600030001800FC1FFC1F0000000056
:103CD0000000000000000000000000038001C000A0
:103CE000C000C000C000C000C00060006000300024
:103CF00060004000C000C000C000C000C000C000A4
:103D000080010003000000000000800180018001AC
:103D1000800180018001800180018001800180019B
:103D2000800180018001800180018001800180018B
:103D3000800180018001000000006000C000C0011F
:103D400080018001800180018001000300030006E2
:103D50000003000180018001800180018001800159
:103D6000C000600000000000000000000000000033
:103D70000000000000000000F010F81F080F000015
:103D80000000000000000000000000000000000033
:103D90000000000000000000000000000000000023
:103DA0000000000000000000000000000000000013
:103DB0000000002000200020002000200020002023
:103DC00000000020000000000000005000500050E3
:103DD00000000000000000000000000000000000E3
:103DE0000000000900090012007F0012007F00128D
:103DF000002400240000000000100038005400508F
:103E00000050003800140054005400380010000026
:103E10000000803000490049004AC03220052009D6
:103E20002009C010000000000000000C0012001269
:103E300000140018002500230023801D000000004E
:103E400000000040004000400000000000000000B2
:103E5000000000000000000000000008001000103A
:103E60000020002000200020002000200010001072
:103E70000000004000200020001000100010001082
:103E80000010001000200020000000200070002022
:103E900000500000000000000000000000000000D2
:103EA00000000000000000080008007F0008000873
:103EB0000000000000000000000000000000000002
:103EC0000000000000000000000000200020004072
:103ED0000000000000000000000000000070000072
:103EE00000000000000000000000000000000000D2
:103EF00000000000000000000000002000000000A2
:103F00000000001000100010002000200020002001
:103F100000400040000000000000001000280044A5
:103F20000044004400440044002800100000000049
:103F300000000010003000500010001000100010B1
:103F40000010001000000000000000300048004495
:103F500000040008001000200040007C0000000069
:103F60000000003000480004000800100008004471
:103F70000048003000000000000000080018001891
:103F8000002800280048007C00080008000000000D
:103F90000000003C00200040007000480004004485
:103FA000004800300000000000000018002400401D
:103FB0000050006800440044002800100000000089
:103FC0000000007C00040008001000100010002019
:103FD0000020002000000000000000100028004425
:103FE00000280010002800440028001000000000F5
:103FF00000000010002800440044002C00140004BD
:104000000048003000000000000000000000002018
:104010000000000000000000000000200000000080
:104020000000000000000020000000000000000070
:1040300000000020002000400000000000040008F4
:1040400000300040003000080004000000000000C4
:10405000000000000000007C00000000007C000068
:1040600000000000000000000000000000400020F0
:1040700000180004001800200040000000000000AC
:104080000000003800640044000400080010001024
:1040900000000010000000000000800F4010A02E63
:1040A000A0512051205120512053C04D20204010BC
:1040B000000000080014001400140022003E00223A
:1040C00000410041000000000000003C00220022EE
:1040D0000022003C002200220022003C00000000E0
:1040E0000000000E0011002100200020002000210F
:1040F0000011000E000000000000003C0022002122
:1041000000210021002100210022003C00000000CD
:104110000000003E002000200020003E0020002083
:104120000020003E000000000000003E00200020B3
:104130000020003C002000200020002000000000A3
:104140000000000E001100210020002700210021A6
:104150000011000E000000000000002100210021DD
:104160000021003F0021002100210021000000006B
:10417000000000200020002000200020002000205F
:1041800000200020000000000000000800080008D7
:104190000008000800080048004800300000000047
:1041A00000000022002400280028003800280024F5
:1041B0000024002200000000000000200020002059
:1041C00000200020002000200020003E0000000011
:1041D00000008020803180318031802A802A802A2E
:1041E000802A8024000000000000002100310031FE
:1041F00000290029002500230023002100000000E1
:104200000000000C001200210021002100210021EB
:104210000012000C000000000000003C0022002200
:104220000022003C002000200020002000000000B0
:104230000000000C001200210021002100210021BB
:104240000016000D000100000000003E00210021CA
:104250000021003E002400220021802000000000F8
:104260000000001C002200220020001C000200228E
:104270000022001C000000000000003E00080008B2
:1042800000080008000800080008000800000000FE
:104290000000002100210021002100210021002137
:1042A0000012000C0000000000000041004100224C
:1042B0000022002200140014001400080000000076
:1042C00000004044404A402A802A802A802A802ACE
:1042D000802A0011000000000000004100220014AC
:1042E0000014000800140014002200410000000027
:1042F000000000410022002200140008000800080D
:1043000000080008000000000000007E0002000419
:1043100000080010001000200040007E0000000097
:10432000000000300020002000200020002000209D
:10433000002000200020002000000040004000205D
:1043400000200020002000200010001000000000CD
:10435000000000600020002000200020002000203D
:10436000002000200020002000000010002800286D
:1043700000280044000000000000000000000000D1
:10438000000000000000000000000000000000002D
:10439000000000000000007E00400020000000003F
:1043A000000000000000000000000000000000000D
:1043B000000000000000003800440004003C0044FD
:1043C0000044003C00000000000000400040005895
:1043D00000640044004400440064005800000000F1
:1043E0000000000000000030004800400040004095
:1043F0000048003000000000000000040004003409
:10440000004C004400440044004C00340000000014
:10441000000000000000003800440044007C004020
:10442000004400380000000000000060004000E090
:1044300000400040004000400040004000000000FC
:104440000000000000000034004C00440044004420
:10445000004C0034000400440000004000400058BC
:104460000064004400440044004400440000000094
:1044700000000040000000400040004000400040BC
:10448000004000400000000000000040000000402C
:10449000004000400040004000400040004000401C
:1044A00000000040004000480050006000500050F4
:1044B00000480048000000000000004000400040AC
:1044C000004000400040004000400040000000006C
:1044D0000000000000000052006D00490049004942
:1044E00000490049000000000000000000000058E2
:1044F0000064004400440044004400440000000004
:104500000000000000000038004400440044004463
:1045100000440038000000000000000000000058C7
:10452000006400440044004400640058004000401F
:104530000000000000000034004C0044004400442F
:10454000004C003400040004000000000000005093
:1045500000600040004000400040004000000000BB
:10456000000000000000003000480040003000085B
:10457000004800300000000000000040004000E063
:10458000004000400040004000400060000000008B
:1045900000000000000000440044004400440044C7
:1045A000004C003400000000000000000000004447
:1045B0000044002800280028002800100000000007
:1045C000000000000000004900490055005500555A
:1045D0000055002200000000000000000000004420
:1045E00000280028001000280028004400000000D7
:1045F00000000000000000440044002800280028BB
:1046000000100010001000100000000000000078F2
:10461000000800100020002000400078000000008A
:10462000000000100020002000200020004000209A
:10463000002000200020002000000020002000209A
:10464000002000200020002000200020002000206A
:10465000000000400020002000200020001000206A
:1046600000200020002000200000000000000000CA
:10467000007400580000000000000000000000006E
:10468000000000000070005000500050005000502A
:10469000005000700000000000000000000000005A
:1046A000000000000000000000000000000000000A
:1046B00000000000000010001000100010001000AA
:1046C00010000000100000000000000000002800A2
:1046D000280028000000000000000000000000008A
:1046E000000000000000140014003E001400280028
:1046F0007C002800280000000000000010003800A6
:104700005400500038001400140054003800100009
:104710000000000000004400A800A80050001400A1
:104720001A002A0024000000000000000000200001
:10473000500050002000E800980098006000000041
:1047400000000000000080008000800000000000E9
:104750000000000000000000000000000000400019
:104760008000800080008000800080008000800049
:1047700000000000000080004000400040004000B9
:1047800040004000400040000000000000004000E9
:10479000E0004000A0000000000000000000000059
:1047A0000000000000000000000020002000F800D1
:1047B00020002000000000000000000000000000B9
:1047C0000000000000000000000000004000400069
:1047D00000000000000000000000000000000000D9
:1047E000C000000000000000000000000000000009
:1047F0000000000000000000000000004000000079
:1048000000000000000020002000200040004000C8
:1048100080008000800000000000000000006000B8
:1048200090009000900090009000900060000000C8
:1048300000000000000020006000A0002000200018
:1048400020002000200000000000000000006000A8
:10485000900010001000200040008000F0000000D8
:1048600000000000000060009000100060001000D8
:104870001000900060000000000000000000100028
:104880003000500050009000F800100010000000B0
:10489000000000000000700040008000E0001000F8
:1048A00010009000600000000000000000006000A8
:1048B00090008000A000D0009000900060000000F8
:1048C000000000000000F000100020002000200088
:1048D00040004000400000000000000000006000B8
:1048E0009000900060009000900090006000000038
:1048F000000000000000600090009000B000500038
:1049000010009000600000000000000000000000A7
:104910000000400000000000000000004000000017
:104920000000000000000000000040000000000047
:1049300000000000400040000000000000000000F7
:104940000000100060008000600010000000000007
:10495000000000000000000000000000F000000067
:10496000F000000000000000000000000000000057
:104970000000800060001000600080000000000067
:1049800000000000000060009000100020004000C7
:1049900040000000400000000000000000001C007B
:1049A00022005B00A500A500A500A5009E00410017
:1049B0000000000000002000500050005000500097
:1049C0007000880088000000000000000000F00077
:1049D00088008800F000880088008800F00000004F
:1049E00000000000000038004400840080008000C7
:1049F0008400440038000000000000000000E000D7
:104A0000900088008800880088009000E000000086
:104A1000000000000000F80080008000F800800026
:104A200080008000F8000000000000000000780016
:104A30004000400070004000400040004000000086
:104A400000000000000038004400840080009C004A
:104A500084004400380000000000000000008800CE
:104A600088008800F800880088008800880000001E
:104A700000000000000080008000800080008000B6
:104A80008000800080000000000000000000100096
:104A90001000100010001000900090006000000056
:104AA00000000000000088009000A000E000A000CE
:104AB00090009000880000000000000000008000CE
:104AC000800080008000800080008000F0000000F6
:104AD0000000000000008200C600C600AA00AA0074
:104AE000AA00AA009200000000000000000084005C
:104AF000C400A400A400940094008C008400000072
:104B000000000000000030004800840084008400A1
:104B10008400480030000000000000000000F000A9
:104B2000880088008800F00080008000800000007D
:104B30000000000000003000480084008400840071
:104B400084005800340004000000000000007800D9
:104B50004400440078005000480044004200000037
:104B60000000000000007000880080007000080055
:104B70008800880070000000000000000000F800BD
:104B80002000200020002000200020002000000045
:104B90000000000000008400840084008400840081
:104BA0008400480030000000000000000000880081
:104BB00088005000500050005000500020000000BD
:104BC0000000000000009200AA00AA00AA00AA00AB
:104BD000AA00AA00440000000000000000008400B9
:104BE00048004800300030004800480084000000C1
:104BF000000000000000880050005000200020004D
:104C00002000200020000000000000000000F8004C
:104C1000080010002000200040008000F800000084
:104C2000000000000000C0008000800080008000C4
:104C300080008000800080000000000000008000F4
:104C400080004000400040004000200020000000A4
:104C5000000000000000C000400040004000400094
:104C60004000400040004000000000000000400004
:104C7000A000A000A0000000000000000000000054
:104C80000000000000000000000000000000000024
:104C9000000000000000F80000000000000080009C
:104CA00040000000000000000000000000000000C4
:104CB00000000000000000000000E0001000700094
:104CC00090009000700000000000000000008000D4
:104CD0008000A000D00090009000D000A000000054
:104CE0000000000000000000000060009000800054
:104CF0008000900060000000000000000000100034
:104D000010005000B00090009000B0005000000073
:104D10000000000000000000000060009000F000B3
:104D20008000900060000000000000000000C00053
:104D30008000C000800080008000800080000000B3
:104D4000000000000000000000005000B0009000D3
:104D50009000B00050001000000000000000800033
:104D60008000A000D0009000900090009000000013
:104D70000000000000008000000080008000800033
:104D80008000800080000000000000000000800023
:104D90000000800080008000800080008000800093
:104DA000000000000000800080009000A000C00013
:104DB000A0009000900000000000000000008000B3
:104DC0008000800080008000800080008000000063
:104DD00000000000000000000000A600DA009200C1
:104DE000920092009200000000000000000000000D
:104DF0000000A000D0009000900090009000000003
:104E00000000000000000000000060009000900022
:104E10009000900060000000000000000000000012
:104E20000000A000D00090009000D000A000800002
:104E3000000000000000000000005000B0009000E2
:104E40009000B000500010000000000000000000C2
:104E50000000A000C00080008000800080000000F2
:104E600000000000000000000000E0009000400092
:104E700020009000600000000000000000008000A2
:104E80008000C0008000800080008000C000000022
:104E90000000000000000000000090009000900062
:104EA0009000B00050000000000000000000000072
:104EB00000008800880050005000500020000000D2
:104EC000000000000000000000009200AA00AA00FC
:104ED000AA00AA004400000000000000000000003A
:104EE00000008800500020002000500088000000D2
:104EF000000000000000000000008800500050008A
:104F000050002000200020000000000000000000F1
:104F10000000F0001000200040008000F0000000C1
:104F2000000000000000C000800080008000000041
:104F300080008000800080000000000000008000F1
:104F40008000800080008000800080008000800061
:104F5000000000000000C0004000400040002000B1
:104F60004000400040004000000000000000000041
:104F700000000000E800B000000000000000000099
:104F80000000000000000000E000A000A000A00061
:104F9000A000A000E00000000000000000000000F1
:104FA0000000000000000000400040004000400001
:104FB0004000400000004000A000A000A000000051
:104FC0000000000000000000000024002400FE009B
:104FD0004800FC00480048003800540050003800E9
:104FE00014001400540038004400A800A800500029
:104FF00014001A002A0024001000280028001000C5
:1050000074004C004C003000100010001000000034
:105010000000000000000000080010001000100058
:105020001000100010000800100008000800080020
:10503000080008000800100000000000240018000C
:105040003C001800240000000000000010001000C8
:105050007C001000100000000000000000000000B4
:105060000000080008001000000000000000000020
:105070003C000000000000000000000000000000F4
:1050800000000000180018000800080008001000C8
:10509000100020002000200018002400240024001C
:1050A000240024002400180008001800280008002C
:1050B0000800080008000800380044000000040050
:1050C0000800100020007C001800240004001800D4
:1050D000040004002400180004000C001400240044
:1050E00044007E00040004003C0020002000380042
:1050F00004000400240018001800240020003800D8
:1051000024002400240018003C00040008000800CB
:1051100008001000100010001800240024001800DF
:105120002400240024001800180024002400240077
:105130001C00040024001800000000001000000003
:105140000000100000000000000000000800000047
:10515000000008001000000000000000040018001B
:1051600020001800040000000000000000003C00C7
:1051700000003C00000000000000000020001800BB
:10518000040018002000000018002400040008009B
:1051900010001000000010003C0042009900A50023
:1051A000A5009D004200380038004400440044003F
:1051B0007C0044004400440078004400440078002F
:1051C00044004400440078001C00220042004000DB
:1051D0004000420022001C007000480044004400CF
:1051E00044004400480070007C00400040007C0007
:1051F0004000400040007C003C00200020003800BF
:1052000020002000200020001C002200420040005E
:105210004E00420022001C004400440044007C0078
:10522000440044004400440010001000100010002E
:10523000100010001000100004000400040004001E
:1052400004002400240018004400480050007000AE
:1052500050004800480044002000200020002000AA
:105260002000200020003C008200C600C600AA00EA
:10527000AA00AA00AA009200420062005200520056
:105280004A004A0046004200180024004200420042
:10529000420042002400180078004400440044000A
:1052A0007800400040004000180024004200420006
:1052B000420042002C001A007800440044007800AC
:1052C00050004800440042003800440040003800CC
:1052D00004004400440038007C001000100010005E
:1052E0001000100010001000420042004200420076
:1052F0004200420024001800440044002800280016
:1053000028002800280010009200AA00AA00AA0085
:10531000AA00AA00AA0044004200240024001800A9
:105320001800240024004200440028002800100037
:1053300010001000100010007C0004000800100095
:105340001000200040007C001C0010001000100025
:105350001000100010001C001000100008000800D1
:1053600008000800040004001C00040004000400FD
:105370000400040004001C00100028004400000089
:10538000000000000000000000000000000000001D
:1053900000000000000000002000100010000000CD
:1053A00000000000000000000000000018000400E1
:1053B0001C00240024001C002000200028003400D1
:1053C00024002400340028000000000018002400FD
:1053D00020002000240018000400040014002C0009
:1053E000240024002C0014000000000018002400F9
:1053F0003C002000240018000000180010001000DD
:1054000018001000100010000000180024002400F4
:105410001800040024001800200020002800340098
:1054200024002400240024001000000010001000BC
:105430001000100010001000080000000800080014
:105440000800080028001000200020002400280088
:10545000300028002400240010001000100010006C
:10546000100010001000100000000000A600DA007C
:105470009200920092009200000000002800340088
:105480002400240024002400000000001800240050
:105490002400240024001800000028003400240008
:1054A0003800200020002000000014002C00240000
:1054B0001C00040004000400000000002C00300068
:1054C0002000200020002000000000001800240020
:1054D0001000080024001800000010003800100020
:1054E000100010001000180000000000240024002C
:1054F000240024002C00140000000000440044009C
:105500002800280028001000000000009200AA00D7
:10551000AA00AA00AA0044000000000044002800DD
:105520001000100028004400000028002800280077
:105530001000100010001000000000003C000400EB
:105540000800100020003C000000080010001000BF
:1055500020001000100008001000100010001000C3
:1055600010001000100010000000100008000800DB
:1055700004000800080010000000000000006000A7
:1055800092000C0000000000FF00FF00FF00FF0081
:10559000FF00FF00FF00FF006C65645F315F6F6616
:1055A000660000006C65645F325F6F666600000035
:1055B0006C65645F335F6F66660000006C65645FF6
:1055C000345F6F66660000006C65645F315F6F6E0C
:1055D000000000006C65645F325F6F6E00000000C9
:1055E0006C65645F335F6F6E000000006C65645F24
:1055F000345F6F6E000000001856000800000020A5
:10560000540200002C0200084457000854020020F5
:10561000CC100000D822000841924600095E4E6F6F
:1056200074207965742113F45512081301011AC806
:10563000081AD4041AE0041AEC041A98041AA404F0
:105640001AB0042ABC2433C20112081349221B08D1
:1056500045041309211B08E1041AB1041329191B7D
:105660000871041A81041AAD04131D1A1408F518E0
:105670001B08390C131201320216408304405748AC
:105680000802010203010A061212011504030904AB
:10569000BC140240041119041A08041A20044B1007
:1056A00001103904214BFFFF04D153C01213C82B42
:1056B000130810121813983D13080C120C13984677
:1056C0002B0808082A4F087208493E19862A040444
:1056D000051C06070809696B13FD291B0899044B73
:1056E0007D2A491AC50C13CD281B085D085A55148C
:1056F000411A65F81A75041C090243EB111BC032EC
:10570000DF196D190B1B0524CC14052401100901A8
:105710000424020205240617010705820308151058
:1057200009040133020A15070501021A02072A813A
:10573000072B0907430A220443BAFF432A40072ADA
:04574000810761007C
:040000050800018965
:00000001FF
