:020000040800F2
:10000000E8CF00209D010008F51C00085D180008DD
:10001000F11C0008C90800087D3F0008000000002E
:10002000000000000000000000000000992A000805
:10003000B70A0008000000007D1D0008952B00088D
:10004000B7010008B7010008B701000855240008EF
:10005000B7010008B7010008B7010008B7010008A0
:10006000B7010008B7010008B7010008B701000890
:10007000B7010008B7010008B7010008B701000880
:10008000B7010008B7010008B7010008B701000870
:10009000B7010008B7010008B7010008B701000860
:1000A000B7010008B7010008B7010008B701000850
:1000B000092C0008B7010008B7010008B7010008C3
:1000C000B7010008B7010008B7010008B701000830
:1000D000B70100084D350008693500089D35000856
:1000E000B701000869200008B7010008B70100083F
:1000F000B7010008B7010008B7010008B701000800
:10010000B7010008B7010008B7010008B7010008EF
:10011000B7010008B7010008B7010008B7010008DF
:10012000B7010008B7010008B7010008B7010008CF
:10013000B7010008B7010008B7010008B7010008BF
:10014000B7010008B7010008B7010008B7010008AF
:10015000B7010008B7010008B7010008B70100089F
:10016000B7010008B7010008B7010008B70100088F
:10017000B7010008B7010008B7010008B70100087F
:10018000B7010008B7010008DFF80CD000F0D4FA7E
:1001900000480047C5690008E8CF002006488047AE
:1001A00006480047FEE7FEE7FEE7FEE7FEE7FEE75C
:1001B000FEE7FEE7FEE7FEE7A12B00088901000845
:1001C00040EA01039B0703D009E008C9121F08C0D9
:1001D000042AFAD203E011F8013B00F8013B521E59
:1001E000F9D27047D2B201E000F8012B491EFBD2D0
:1001F00070470022F6E710B513460A460446194632
:10020000FFF7F0FF204610BD421E12F8013F002B01
:10021000FBD111F8013B02F8013B002BF9D17047EB
:10022000421C10F8011B0029FBD1801A704710B541
:10023000002200E0521C835C8C5CA34201D1002BA5
:10024000F8D1D8B2E1B2401A10BD30B50446002052
:10025000034600E05B1C934203D2E05CCD5C401B94
:10026000F8D030BD2DE9F04D81EA030404F0004BD5
:1002700021F0004514464FF0000A23F0004150EAF7
:10028000050220D054EA01021DD0C5F30A570246E8
:10029000C5F31303C1F31300C1F30A5640F48015EC
:1002A00043F48013A7EB0608101BD64608F2FD386E
:1002B00073EB050002D308F1010801E092185B41DD
:1002C000B8F1000F03DA00200146BDE8F08D0020F0
:1002D0004FF48011064684460EE0171B73EB0507AA
:1002E00005D3121B63EB050306434CEA010C4908D6
:1002F0004FEA300092185B4150EA0107EDD152EA13
:10030000030012D082EA040083EA0501084305D005
:10031000101BAB4106D20122002306E000224FF061
:10032000004302E06FF0010253101AEB06004CEBA1
:10033000085110EB0A0041EB0B01BDE8F04D00F055
:100340006CB80EB540F2334102910021CDE90011A5
:100350000A460B4600F070F803B000BD30B5041E2D
:1003600071F1000404DB4FF00044404264EB0101F2
:10037000141E73F1000405DB1C464FF0004352428B
:1003800063EB0403994208BF904230BD30B50B4681
:10039000014600202022012409E021FA02F59D42B5
:1003A00005D303FA02F5491B04FA02F52844151E89
:1003B000A2F10102F1DC30BD2DE9F05F054600201D
:1003C00092469B4688460646814640241BE02846C6
:1003D00041464746224600F0D0F953465A46C01AD5
:1003E000914110D311461846224600F0B7F92D1A54
:1003F00067EB01084F4622460120002100F0AEF9CC
:1004000017EB00094E41201EA4F10104DFDC484631
:1004100031462A464346BDE8F09F10B5141E73F1DD
:10042000000408DA401C41F1000192185B411A43B4
:1004300001D120F0010010BD2DE9F04D92469B4600
:1004400011B1B1FA81F202E0B0FA80F220329046A6
:1004500000F084F904460F4640EA0A0041EA0B0125
:1004600053465A46084313D0114653EA010019D0A7
:10047000C8F14002504600F080F905460E4650464D
:100480005946424600F06AF9084305D0012004E0CD
:1004900020463946BDE8F08D0020054346EAE07667
:1004A0002C4337430A986305E40AA0EB08000022B6
:1004B000FD0A44EA47540A3002D500200146E9E724
:1004C000010510196941DDE9084500196941BDE8D8
:1004D000F04DA2E72DE9FE4F804681EA0300C00FF0
:1004E0000C46009021F0004123F00045B8EB0200DB
:1004F000A94105D24046214690461C460B4602467D
:1005000023F00040104347D0270DC7F30A00C3F380
:100510000A510290401A019040286BDAC3F313008D
:1005200040F4801B0098924620B10023D2EB030ACE
:1005300063EB0B0B01985946C0F14002504600F0A6
:100540000DF906460D4650465946019A00F025F928
:1005500010EB08006141002487EA115284EAE77336
:100560001A4340D0009A62B3019A012A4FEA075217
:1005700015DC001B61EB02014FF0004202EA07525A
:10058000CDE90042001C41F5801132462B46FFF7B1
:1005900053FF03B0BDE8F08F40462146F9E7001B4A
:1005A00061EB0201001C41F5801300185B4120182B
:1005B000A2F5001747EB030140EAD570B6196D416B
:1005C00011E06D084FEA360645EAC0754FEA07525A
:1005D000001B61EB0201001C41F5801149084FEA44
:1005E00030000019514132462B4603B0BDE8F04FB0
:1005F000FFF713BF0098012240000023D0EB020256
:1006000063EBE073009821464FEAE074B8EB00001A
:1006100061EB0401E9E783F000435BE781F000410F
:1006200058E72DE9FE4F81EA030404F0004421F06D
:10063000004100944FF0000B23F0004350EA010406
:100640005ED052EA03045BD0C3F30A54C1F30A55E7
:100650002C44A4F2F3340194A0FB0254C1F313011F
:1006600041F48011C3F3130343F4801301FB0244EC
:1006700000FB034E840A970A44EA815447EA8357F1
:10068000A4FB076802958D0A05FB07854FEA932CAA
:1006900004FB0C542705029D4FEA065847EA16371B
:1006A000B5EB08056EEB070C870E920E47EA811733
:1006B00042EA8312A7FB0201B6EB0B0164EB0004D4
:1006C0002B0D43EA0C335E1844EB1C50DA465146BE
:1006D000E7FB0201C5F313044FEA0B3343EA14535B
:1006E0004FEA0432019C43EA0603A4F10C0402948D
:1006F000009CCDE900B4FFF79FFE03B0BDE8F08F8A
:1007000000200146F9E7C1F30A52C1F3130140F298
:10071000FF3341F480119A4202DA0020014670470B
:1007200040F233439A42A2F2334202DC524200F0DA
:1007300024B800F013B80000064C074D06E0E0684E
:1007400040F0010394E8070098471034AC42F6D318
:10075000FFF71EFDE0D3000800D40008202A04DBC8
:10076000203A00FA02F1002070479140C2F12003C4
:1007700020FA03F3194390407047202A04DB203A03
:1007800021FA02F00021704721FA02F3D040C2F1B1
:1007900020029140084319467047202A06DBCB17F8
:1007A000203A41FA02F043EAE07306E041FA02F32C
:1007B000D040C2F12002914008431946704770B5FD
:1007C0008C1810F8015B15F0070301D110F8013BFC
:1007D0002A1106D110F8012B03E010F8016B01F883
:1007E000016B5B1EF9D12B0705D40023521E0DD4DB
:1007F00001F8013BFAE710F8013BCB1A921C03E029
:1008000013F8015B01F8015B521EF9D5A142D8D360
:10081000002070BD00B587B00121480401F0F0FA56
:100820000121084601F0ACFA07220221244800F019
:100830007AFF07220321224800F075FF00208DF87F
:100840000A0001208DF80B0002208DF8080004201A
:10085000019002208DF8090001A9194800F01BFF42
:1008600002208DF808000820019001A9144800F02A
:1008700012FF4FF4165003900020ADF81000ADF8B1
:100880001200ADF81400ADF818000C20ADF81600F9
:1008900003A90C4802F00AFF01210A4802F09DFE5C
:1008A000012240F22551074802F0DAFE262003F02B
:1008B00077FE4021034802F087FE07B000BD00002C
:1008C000000002400044004000BFFEE710B50120D8
:1008D0000C4908700322052106F064FC0A490860EF
:1008E0000968486809A103F047FE074800680949FC
:1008F0008860094807F0DEFB0348006806F0F5FD54
:1009000010BD000073000020780000203C3C303017
:100910000000000040050020A004002070B506463D
:100920000C4604F08000802808D104F07F0000EB22
:10093000800106F58E7000EBC10507E004F07F0032
:1009400000EB800106F55D7000EBC10504F07F004F
:10095000287004F08000C00968702946304603F012
:1009600085F9002070BD2DE9F04106460D46904600
:100970001F4605F08000802808D105F07F0000EBBD
:10098000800106F58E7000EBC10407E005F07F00E2
:1009900000EB800106F55D7000EBC10405F07F00FF
:1009A000207005F08000C0096070C4F80880E7700E
:1009B000607808B12078E080022F01D100202071FA
:1009C0002146304603F0FAF80020BDE8F0812DE919
:1009D000F04105460E461746984606F07F0000EBAC
:1009E000800105F55D7000EBC104E760C4F8148078
:1009F0000020A061607006F07F002070E878012878
:100A000000D12761207820B92146284602F0FAFF5C
:100A100003E02146284603F096F90020BDE8F08166
:100A200070B506460C4604F08000802808D104F01A
:100A30007F0000EB800106F58E7000EBC10505E03C
:100A400004EB840106F55D7000EBC1050120A87080
:100A500004F07F002870C4F3C01068702946304647
:100A600003F03FF9002070BD2DE9F04107460D4627
:100A70001646984605F07F0000EB800107F58E7062
:100A800000EBC1040120607005F07F002070E6607B
:100A900026610020A061C4F81480207820B9214686
:100AA000384602F0AFFF03E02146384603F04BF929
:100AB0000020BDE8F081704701B504490098086046
:100AC00000BF024800680028FBD108BD08000020D4
:100AD00010B52DED028B4FF48071244800F04FFECD
:100AE0004FF48071214800F04CFE1E20FFF7E4FF18
:100AF0004FF480711D4800F042FE00214FF080400D
:100B000002F089F900BF4FF40071184800F02EFE82
:100B10000028F8D00121880702F08BF800BF4FF4BD
:100B20000071124800F022FE0128F8D000214FF099
:100B3000804002F07EF84FF0804002F04FF90C49FF
:100B4000097801EB4102C2EBC11100EBC104204660
:100B5000FFF7F7FB9FED070B53EC102BFFF782FB22
:100B600041EC100BBDEC028B10BD000000040240F4
:100B7000750000200000000000004D401CB5012160
:100B8000022001F0FDF800208DF804008DF8060029
:100B90004FF4007000906946094800F07CFD012088
:100BA0008DF8040000208DF8060002208DF8050065
:100BB000C00100906946024800F06DFD1CBD0000B8
:100BC0000004024010B500F0DFF800F0FDFA104814
:100BD0000068C0B94FF4784000F0F4FF00F0CCFF9B
:100BE000C08800EB800084B20AA1204600F016FF06
:100BF00000F0C2FFC08800EB40004004040C0AA1D2
:100C0000204600F00BFF012000F094FC10BD000016
:100C10001001002020202045746865726E657420E4
:100C2000496E697420202000202020202020666149
:100C3000696C6564202020202020000030B1074925
:100C4000896941F00201054A916105E0034989691A
:100C500021F00201014A91617047000000900240BA
:100C600070B50C4613460021124D286000BF18E0F5
:100C700000EB41124FF00045156044F2F455556009
:100C8000C1EBC11505EB450504EB850595605D1EBF
:100C90008D4204D900EB41152035D56000E0D060CD
:100CA000491C9942E4D3044DE860044D044E35607C
:100CB00070BD0000880100200090024078420020B2
:100CC0008C01002030B10749896941F40051054A7F
:100CD000916105E00349896921F40051014A91615C
:100CE000704700000090024030B50C4613460021CA
:100CF0000F4D286000BF15E000EB41124FF4801546
:100D00001560C1EBC11505EB450504EB8505956044
:100D10005D1E8D4204D900EB41152035D56000E001
:100D2000D060491C9942E7D3024D286130BD0000D4
:100D3000840100200090024002680A43026070476C
:100D400010B50121480601F02BF800214FF000708A
:100D500001F026F810BD01B581B000200090019887
:100D6000009002E00098401E009000980028F9D101
:100D70000CBD00000348806940F48010014988617F
:100D800070470000009002401CB5012140F2E710BE
:100D900000F0F6FF0121880301F052F84FF4807053
:100DA000009003208DF8050002208DF8040000203B
:100DB0008DF806008DF807006946444800F06BFC8A
:100DC00000214FF4800001F00BF9002001F066FED5
:100DD0008620009069463D4800F05DFC0B22012111
:100DE0003A4800F0A0FC0B220221384800F09BFC9E
:100DF0000B220721354800F096FC4FF480700090DC
:100E00006946334800F047FC0B220821304800F0C7
:100E10008AFC3E20009069462E4800F03CFC0B22E4
:100E200001212C4800F07FFC0B220221294800F010
:100E30007AFC0B220321274800F075FC0B220421C9
:100E4000244800F070FC0B220521224800F06BFCC6
:100E50004FF4D040009069461F4800F01CFC0B2264
:100E600011461D4800F05FFC0B220D211A4800F0CE
:100E70005AFC0B220E21184800F055FCCC200090A3
:100E80006946164800F007FC0B220221134800F0C7
:100E90004AFC0B220321114800F045FC0B220621DD
:100EA0000E4800F040FC0B2207210C4800F03BFCF0
:100EB0004FF4806000906946094800F0ECFB0B227B
:100EC0000A21074800F02FFC1CBD00000000024072
:100ED000000402400008024000180240001C0240CA
:100EE0000020024000200449096801F0010109B115
:100EF000012000E000207047009002402DE9F04101
:100F000086B004460F464FF00008002500200590EB
:100F1000954E00909548056925F01C0501A800F044
:100F2000AFFF029E9248864205D39248864202D283
:100F300045F008051AE08F48864205D38A48864264
:100F400002D245F00C0511E08748864203D38A4857
:100F5000864200D20AE08848864205D38748864206
:100F600002D245F0040501E045F010057F48056117
:100F70004FF400420021384600F0A8FA18B90020CA
:100F800006B0BDE8F0817E48FFF7E5FE2068002846
:100F90004ED000BF0098401C00900121384600F060
:100FA000EBF900F0040018B9764900988842F1D3B3
:100FB00074490098884201D10020E1E700200090A8
:100FC0004FF480520021384600F080FA08B9002022
:100FD000D6E700BF0098401C00900121384600F081
:100FE000CBF900F0200018B9664900988842F1D387
:100FF00064490098884201D10020C1E70020009098
:101000001021384600F0B8F9804608F0040018B105
:101010004FF40060206201E00020206208F002002E
:1010200010B10020606116E04FF48040606112E072
:10103000206AC0F3CF006169C1F34F0140EA0102A9
:101040000021384600F042FA08B9002098E76FF016
:101050007F40FFF780FE454805684B480540D4E9CE
:1010600001010843E16808432169084361690843B5
:10107000A1690843E1690843216A0843616A08439A
:10108000A16A0843E16A0843216B0843616B084386
:10109000054336480560D4E90E010843216C084336
:1010A000616C0843A16C0843E16C0843216D08435F
:1010B000616D08432D494860A06D8860E06DC8608F
:1010C000084685694FF641700540B4F86010606EBF
:1010D00040EA0140A16E0843E16E0843216F0843D6
:1010E000616F0843054321488561D4E91E01084327
:1010F0001E49C8612548856925480540D4E9200175
:101100000843D4F888100843D4F88C100843D4F866
:1011100090100843D4F894100843D4F8981008436A
:10112000D4F89C100843D4F8A0100843054317488E
:101130008561D4E929010843D4F8AC100843D4F8F8
:10114000B0100843D4F8B41040EA8100D4F8B810C5
:10115000084340F400000D4908600846006840F06C
:101160008000086001200BE70087930300800240A5
:10117000002D3101C00E160200E1F50580D1F00806
:10118000FFFF0F00FFFF04000F8120FF00900240CF
:10119000233FDEF810B50B794C7943EA0422094B62
:1011A00003441A64CB781B068C7843EA04434C78DA
:1011B00043EA04230C7843EA0402024B03445A64D2
:1011C00010BD00000080024000B5AFB001214FF01B
:1011D000606000F0D5FDFFF7B3FD00F003F900BF3C
:1011E000FFF780FE0128FBD0684600F015F90120CA
:1011F0000090002007904FF400700A9000200B90A0
:101200000E90119013901490159020904FF0007054
:1012100021900011239000202590269004202890F2
:10122000C005299040122A9080012B9040122C90EA
:1012300040002E9001216846FFF760FE01490860DA
:101240002FB000BD1001002030B10749096841F0FE
:101250000401054A116005E00349096821F0040111
:10126000014A1160704700000080024030B1074918
:10127000096841F00801054A116005E00349096861
:1012800021F00801014A116070470000008002400F
:1012900070B5024600230025002435480068006828
:1012A00000F0004008B1002070BD3148016840F2F4
:1012B000F450824208DD92FBF0F392FBF0F600FB63
:1012C000162010B15B1C00E00123012B1AD1284825
:1012D0000068006840F04050254E36683060C2F328
:1012E0000C00234E3668706021480068006840F0AA
:1012F00000401F4E366830601D480068C0681C4EB4
:10130000306028E0002422E03CB9194800680068F9
:1013100040F08050164E3668306040F2F45048601D
:10132000581EA0420DD1086840F000500860581EB9
:10133000C0EBC01000EB4000A2EB8005C5F30C0031
:101340004860086840F000400860C968641C9C421E
:10135000DAD3074801600748406900F0040020B173
:101360000420044E70610020706001209CE70000A2
:10137000840100200090024018B502460B4600216F
:10138000002000901548016901F01C014FF47840DD
:1013900000EAC22001434FF4F86000EA83100143E1
:1013A00021F0020141F001010C48016100BF0098E9
:1013B000401C00900948016901F0010018B1084C77
:1013C0000098A042F3D3064C0098A04201D100201F
:1013D00018BD0248406980B2FAE700000080024070
:1013E000FFFF04000348006840F001000149086065
:1013F000704700000090024000B50120FFF736FF63
:10140000FFF7B8FC0120FFF71FFF0120FFF75AFC90
:101410000120FFF713FC00BD0121016000214160A4
:101420008160C16001614FF48041416100218161AF
:10143000C1614FF400610162002141628162C162B9
:10144000016341638163C1634021016420214164E0
:1014500000218164C164016541658165C1650166E2
:101460008021416600218166C1660167416781670D
:10147000C1674FF08061C0F880104910C0F8841037
:101480000021C0F888104FF40011C0F88C10002122
:10149000C0F89010C0F89410C0F89810C0F89C10D4
:1014A000C0F8A0104FF00071C0F8A4104912C0F8A5
:1014B000A8108901C0F8AC104912C0F8B010002182
:1014C000C0F8B410C0F8B8107047000038B5034633
:1014D0000C460021002000901448016901F01C0115
:1014E0004FF4784000EAC32001434FF4F86000EA6B
:1014F0008410014341F0020141F001010B484261B7
:10150000016100BF0098401C00900848016901F08B
:10151000010018B1064D0098A842F3D3044D00987D
:10152000A84201D1002038BD0120FCE70080024024
:10153000FFFF040070B50546002411212846FFF77F
:101540001BFF044644F00304224611212846FFF7FE
:10155000BDFF08B9002070BD12212846FFF70CFF1F
:10156000044644F02004224612212846FFF7AEFF2D
:1015700008B90020EFE70120EDE7000051B182003B
:10158000A2F1C042126842F001038200A2F1C042FF
:10159000136009E08200A2F1C0421268034B1A40B6
:1015A0008300A3F1C0431A6070470000FEFF0F00E4
:1015B000D0E901121143C268114302691143426923
:1015C000114382691143C2691143026A1143426A9D
:1015D0001143826A1143C26A1143026B11430268CC
:1015E0009200A2F1C0421160816808290BD1016804
:1015F0008900A1F1C041096841F0400201688900F9
:10160000A1F1C0410A60416B0968426B526841EA2E
:101610000211426B926841EA0221426B928941EACF
:101620000241426B128A41EA0251426B127D41EA49
:101630000261426B926911430268521C9200A2F14E
:10164000C0421160C16AB1F5804F1BD1816B09683E
:10165000826B526841EA0211826B926841EA022170
:10166000826B128A41EA0251826B127D41EA026169
:10167000826B9269114302689200A2F1C042C2F8E3
:10168000041107E06FF0704201688900A1F1C041C8
:10169000C1F804217047F0B50A4600210023002458
:1016A00000BF3DE0012505FA01F3156805EA0304D2
:1016B0009C4234D105684F000326BE40B543056007
:1016C00015794E00B5400668354305601579012D42
:1016D00002D01579022D16D185684F000326BE4031
:1016E000B543856055794E00B540866835438560C1
:1016F000456801268E40B5434560456896798E4021
:10170000B6B235434560C5684F000326BE40B543B9
:10171000C560D5794E00B540C6683543C560491CE3
:101720001029BFD3F0BDF0B5002300244D07ED0E06
:1017300002FA05F3CE1000F1200555F826504E07A9
:10174000F70E0F26BE40B543CF1000F1200646F835
:101750002750CE1000F1200555F8265045EA030425
:10176000CE1000F1200545F82640F0BD02460020CD
:1017700013690B400BB1012000E00020704741834A
:10178000704701837047000070B506462E48007808
:10179000012856D02D480068B0F5006F02D1002016
:1017A0002A4908602948006829490968884203D104
:1017B00000202549087070BD244800682449096844
:1017C000884206D921480068C0F5006021490860B8
:1017D00006E01F4800681D490968401A1D49086055
:1017E0001C480068B0F5007F11D91848008884B201
:1017F0004FF400751548006800F500701349086043
:1018000014480068A0F50070124908600FE00F4806
:10181000008884B20F48008885B20C4800680D49E2
:10182000096808440949086000200A490860012045
:1018300005490870084802192B4681213046FFF7F8
:1018400013F900BFB7E70000AC010020A40100209D
:10185000A0010020A80100208345002000BFFEE772
:1018600030B50446002540F23F11002000F098F901
:1018700000F0B4F900BF03E04FF0D04044806D1C8D
:10188000B5F5963FF8D330BD30B5054640F23F146C
:1018900009E020222146284600F0A8F80648006802
:1018A0008088201A84B2601C80B203490968898844
:1018B0008842EEDA30BD00006C0100201CB5012129
:1018C000782000F05DFA4CF23370009002208DF821
:1018D00004008DF8050000208DF806008DF8070043
:1018E00069463E48FFF7D7FE0C2200213B48FFF730
:1018F0001AFF0C2201213948FFF715FF0C220421A1
:101900003648FFF710FF0C2205213448FFF70BFF84
:101910000C2208213148FFF706FF0C2209212F482D
:10192000FFF701FF0C220A212C48FFF7FCFE0C22D6
:101930000E212A48FFF7F7FE0C220F212748FFF758
:10194000F2FE4FF68070009069462548FFF7A3FE2F
:101950000C2207212248FFF7E6FE0C22082120482E
:10196000FFF7E1FE0C2209211D48FFF7DCFE0C22E7
:101970000A211B48FFF7D7FE0C220B211848FFF75E
:10198000D2FE0C2211461648FFF7CDFE0C220D2187
:101990001348FFF7C8FE0C220E211148FFF7C3FEC3
:1019A0000C220F210E48FFF7BEFE01200090694671
:1019B0000C48FFF770FE0C2200210A48FFF7B3FE27
:1019C0004FF48060009069460748FFF764FE0C22E0
:1019D0000A210548FFF7A7FE1CBD0000000C0240CD
:1019E00000100240001402400018024070B5054685
:1019F0000E461446A4F12000C4B2074800680168EE
:101A000005480068C088604301EB40023146284623
:101A100000F02AF870BD00006C01002070B5064689
:101A20000C4640F23F150AE0227829463046FFF77F
:101A3000DDFF0C4800688088281A85B2641C681C89
:101A400080B2084909688988884201DB012000E0EA
:101A50000020217809B1012100E000210840002880
:101A6000E2D170BD6C0100202DE9F04307468946A4
:101A7000164600240025A046B8464946404600F0D8
:101A80008FF800BF39E000F0A9F8002527E01E48D4
:101A9000006880880C2190FBF1F0C1008020884014
:101AA000284136F81410084020B91748006880888B
:101AB0000C280ADD36F814000121A940084048B975
:101AC0001148006880880C2804DD1048008800F068
:101AD00081F803E00E48008800F07CF86D1C0A488D
:101AE00000688088A842D2D808F101001FFA80F867
:101AF0004946404600F054F8641C03480068C0881A
:101B0000A042C0D8BDE8F0836C0100207201002023
:101B10007001002000B597B00121084600F060F97F
:101B200005200190002002900920039000200490DD
:101B300005900690079004200890002009900A90D4
:101B400010200B9000200C900D900E900F90109094
:101B50004FF480501190002012901390149001A81F
:101B60001590169008A8FFF723FD01210420FFF728
:101B700005FD17B000BD0000014800687047000077
:101B80006C01002001464FF0D04001804088704732
:101B900001B5BDF800000149088008BD72010020B0
:101BA00010B503460C461946202000F01CF82146CB
:101BB000212000F018F810BD0149086070470000AE
:101BC0006C01002001B5BDF800000149088008BD86
:101BD000700100204FF0D0414880704722204FF024
:101BE000D041088070474FF0D0421080518070473C
:101BF00010B5002000F012FF012000F00FFF0220BE
:101C000000F00CFF032000F009FF10BD10B58CB0F0
:101C100005F03CF805F08AF9274803F0F7FF0B9030
:101C20006FF0FF0003F0F2FF0A902348CA3803F078
:101C3000EDFF0990CB208DF8200001208DF82100C8
:101C4000A8208DF82200C0208DF823009DF82000E8
:101C50009DF82110CDE900109DF822309DF8232039
:101C600016A103A802F088FCFFF786FFC088C00415
:101C7000040C16A12046FFF7D1FEFFF77DFFC088B8
:101C800000EBC00084B203A92046FFF7C7FE154849
:101C90001549002209ABCDE9002102900AAA0BA93F
:101CA000124805F0B3F9114805F000FA0F4805F0A5
:101CB00057FA0CB010BD0000CB01A8C0202025644D
:101CC0002E25642E25642E256400000020205374E8
:101CD0006174696320495020616464726573732084
:101CE00020200000C758000835590008680400206B
:101CF00000BFFEE77047000070B5002100230F22EF
:101D0000C4781CB3174C246804F4E064C4F5E064A0
:101D1000C4F30721C1F10404E3B20A4144789C40B2
:101D2000E1B28478144021430C07210E0E4C057853
:101D30006155047804F01F050124AC4005786D114D
:101D4000AD0005F1E025C5F8004109E0047804F094
:101D50001F050124AC40054D0678761145F8264054
:101D600070BD00000CED00E000E400E080E100E068
:101D7000014908627047000000000E4270470000F1
:101D800029B1064A12680243044B1A6004E0034A70
:101D900012688243014B1A607047000030380240DD
:101DA00029B1064A12680243044B1A6004E0034A50
:101DB00012688243014B1A607047000010380240DD
:101DC00029B1064A12680243044B1A6004E0034A30
:101DD00012688243014B1A60704700003438024099
:101DE00029B1064A12680243044B1A6004E0034A10
:101DF00012688243014B1A60704700003838024075
:101E000029B1064A12680243044B1A6004E0034AEF
:101E100012688243014B1A6070470000403802404C
:101E200029B1064A12680243044B1A6004E0034ACF
:101E300012688243014B1A6070470000203802404C
:101E400029B1064A12680243044B1A6004E0034AAF
:101E500012688243014B1A60704700004438024008
:101E600029B1064A12680243044B1A6004E0034A8F
:101E700012688243014B1A60704700002438024008
:101E8000F0B5002100220024022500260223324F53
:101E90003F6807F00C0121B1042905D0082937D18A
:101EA00005E02E4F076036E02D4F076033E02A4FE4
:101EB0003F1F3F68C7F38056274F3F1F3F6807F01B
:101EC0003F036EB1264FB7FBF3F7DFF88CC0ACF1E0
:101ED000040CDCF800C0CCF3881C07FB0CF40CE00D
:101EE0001E4FB7FBF3F7DFF870C0ACF1040CDCF861
:101EF00000C0CCF3881C07FB0CF4174F3F1F3F6852
:101F0000C7F301477F1C7D00B4FBF5F7076002E0D3
:101F1000124F076000BF00BF0F4F3F6807F0F0018E
:101F20000909104F7A5C0768D74047600A4F3F683D
:101F300007F4E051890A0B4F7A5C4768D740876005
:101F4000054F3F6807F46041490B064F7A5C4768CC
:101F5000D740C760F0BD0000083802400024F400FC
:101F600040787D017401002010B501460022002355
:101F700000204A11012A02D10A4C236808E0022AF3
:101F800003D1084C7034236802E0064C7434236893
:101F900001F01F02012494401C400CB1012000E01C
:101FA000002010BD003802400021094A1170117054
:101FB000012802D0042808D103E00121044A11704D
:101FC00004E00521024A117000E000BF00BF704725
:101FD000703802400149086070470000800E474297
:101FE00002460020044B186820F0EC6042EA01032E
:101FF0001843014B186070470838024001490860D7
:10200000704700003C0E4742002100F44072B2F5D8
:10201000407F08D1094A116821F4F811084A0240AA
:102020001143064A1160054A68321268C0F30B0377
:102030001A43024B68331A607047000008380240A8
:10204000FFFCFF0F30B10749096841F00401054A60
:10205000116005E00349096821F00401014A11609B
:10206000704700000008065010B54FF4805000F093
:102070009BF828B14FF4805000F02EF800F010FFCC
:102080004FF4005000F090F828B14FF4005000F0E9
:1020900023F800F006FF4FF400300149086010BD3E
:1020A000143C0140014600BF080900EB80004200DB
:1020B00001F00F001044C0B270470146002204E056
:1020C000501CC2B2A1F10A00C1B20A29F8DA100705
:1020D00041EA106070470000002101098AB242F015
:1020E0008002044B1B6803F0800363EA0202014B89
:1020F0001A6070470C28004008B5002200920020AA
:102100000021104A126802F04002CAB9421E0D4B6B
:102110001A6000BF0B4A126802F04001009A521C7C
:102120000092009AB2F5803F01D00029F2D0054A12
:10213000126802F040020AB1012002E0002000E033
:10214000012008BD0C2800400348006820F08000F2
:1021500001490860704700000C28004070B5064631
:102160000C4600250E4800680E4900EA0105280CBF
:10217000E070C5F30420607005F03F00A070C5F367
:10218000423020705EB9E078FFF78CFFE070607835
:10219000FFF788FF6070A078FFF784FFA07070BD24
:1021A000042800403FFFFF0030B501460020002218
:1021B00000230C4C246804F004020A4C383C2468C8
:1021C0000C4002EAD13544EA0503064C343C24684D
:1021D00004EA11121BB194B20CB1012000E00020FE
:1021E00030BD00004028004070B506460C46002572
:1021F0000F4800680F4900EA0105C5F3054020704B
:10220000C5F30620607005F07F00A07005F4800023
:10221000000CE0705EB92078FFF744FF2070607812
:10222000FFF740FF6070A078FFF73CFFA07070BD23
:10223000002800407F7F7F0030B504460025CA207B
:102240001549086053200860FFF756FF00B91DE0EC
:1022500011481C38006820F040000F491C39086004
:1022600008460068216808430B491C3908600A4980
:102270001439A068086008460068A18840EA014057
:10228000054914390860FFF75FFF0125FF20024967
:102290000860284630BD00002428004008B50146EB
:1022A0000020009004480090009800EB810000900E
:1022B0000098006808BD0000502800402DE9F0415A
:1022C00005460C46002600274DB9607800F0100046
:1022D000102804D1607820F010000A30607005B931
:1022E00008E06078FFF7DEFE0646A078FFF7DAFE2A
:1022F000064600BF55B1E0780004617840EA01204D
:10230000A1780843217840EA413611E0E078FFF7F0
:10231000D4FE4FEA00486078FFF7CFFE48EA002875
:10232000A078FFF7CAFE48EA0008207848EA40365D
:10233000CA201249086053200860FFF7DDFE08B983
:10234000002714E00E4830400C4920390860FFF7A0
:10235000FBFE0A481C38006800F0200030B900F08D
:102360008DF808B9002702E0012700E00127FF20CF
:10237000024908603846BDE8F0810000242800408A
:102380003FFFFF002DE9F04105460C4600260027DF
:102390004DB92E48006800F0400000B102E0002076
:1023A000E07000BF0DE02948006800F0400020B157
:1023B0002078FFF777FE064602E00020E07000BFBD
:1023C00000BF55B120780004617840EA0120A1786F
:1023D0000843E17840EA014611E02078FFF76DFEFE
:1023E0004FEA00486078FFF768FE48EA0028A078C6
:1023F000FFF763FE48EA0008E07848EA0046CA2092
:1024000012491C31086053200860FFF775FE08B9B7
:10241000002713E00E4830400C4908390860FFF7E8
:1024200093FE0A48006800F0200030B900F026F85A
:1024300008B9002702E0012700E00127FF20034937
:102440001C3108603846BDE8F081000008280040D3
:102450007F7F7F0010B54FF48040FFF7A5FE28B1C5
:102460004FF48040FFF738FE00F070FE4FF480001C
:102470000149086010BD0000143C014008B500226D
:10248000009200200021CA22134B1A6053221A60C6
:10249000114A183A126822F0A0020F4B183B1A603A
:1024A00000BF0D4A183A126802F02001009A521C2F
:1024B0000092009AB2F5003F01D00029F1D0064AFF
:1024C000183A126802F020020AB1012000E0002050
:1024D000FF22014B1A6008BD2428004008B50022E5
:1024E0000092044A0092009A02EB80020092009A45
:1024F000116008BD5028004018B1FF21044A116046
:1025000004E0CA21024A11605321116070470000A3
:102510002428004008B500200090FFF7CFF9FFF70E
:10252000F9FA052002F0B6FD0020FFF72BFB009022
:1025300049F22031009888427ED14FF40041E520D5
:10254000FFF751FB01210020FFF74DFB4FF4807195
:102550000120FFF748FB4FF4E0610220FFF743FB47
:1025600041F230010320FFF73EFB00210420FFF77A
:102570003AFB40F202210820FFF735FB0021092039
:10258000FFF731FB00210A20FFF72DFB00210C2073
:10259000FFF729FB00210D20FFF725FB00210F206D
:1025A000FFF721FB00211020FFF71DFB0021112068
:1025B000FFF719FB00211220FFF715FB0021132064
:1025C000FFF711FB142002F065FD41F2B0711020FD
:1025D000FFF709FB40F237111120FFF704FB05203C
:1025E00002F058FD40F239111220FFF7FCFA0520E5
:1025F00002F050FD4FF4E8511320FFF7F4FA1321D5
:102600002920FFF7F0FA052002F044FD00212020E8
:10261000FFF7E9FA00212120FFF7E5FA0621302033
:10262000FFF7E1FA40F201113120FFF7DCFA032154
:102630003220FFF7D8FA00E07BE04FF483713520B9
:10264000FFF7D1FA40F602313620FFF7CCFA40F21C
:1026500002313720FFF7C7FA40F207713820FFF741
:10266000C2FA07213920FFF7BEFA4FF4C0613C20BF
:10267000FFF7B9FA40F20B213D20FFF7B4FA002131
:102680005020FFF7B0FAEF215120FFF7ACFA0021FC
:102690005220FFF7A8FA40F23F115320FFF7A3FAA8
:1026A0004FF41C516020FFF79EFA01216120FFF7D3
:1026B0009AFA00216A20FFF796FA00218020FFF79E
:1026C00092FA00218120FFF78EFA00218220FFF785
:1026D0008AFA00218320FFF786FA00218420FFF781
:1026E00082FA00218520FFF77EFA10219020FFF763
:1026F0007AFA00219220FFF776FA03219320FFF760
:1027000072FA4FF488719520FFF76DFA0021972037
:10271000FFF769FA00219820FFF765FA41F21801E6
:102720000320FFF760FA40F273110720FFF75BFA0E
:10273000F9E049F2253100988842F9D101210020C1
:10274000FFF751FA4FF480710120FFF74CFA4FF474
:10275000E0610220FFF747FA41F218010320FFF77A
:1027600042FA00210420FFF73EFA40F2022108203D
:10277000FFF739FA00210920FFF735FA00210A2076
:10278000FFF731FA00210C20FFF72DFA00210D2070
:10279000FFF729FA00210F20FFF725FA002110206A
:1027A000FFF721FA00211120FFF71DFA0021122066
:1027B000FFF719FA00211320FFF715FA142002F091
:1027C00069FC41F2B0711020FFF70DFA40F23711A9
:1027D0001120FFF708FA052002F05CFC40F23911E5
:1027E0001220FFF700FA052002F054FC4FF4E851E4
:1027F0001320FFF7F8F913212920FFF7F4F905203A
:1028000002F048FC00212020FFF7EDF900212120F3
:10281000FFF7E9F907213020FFF7E5F940F202312F
:102820003120FFF7E0F940F205113220FFF7DBF924
:1028300040F206213520FFF7D6F940F60801362090
:10284000FFF7D1F940F206213720FFF7CCF940F22B
:1028500004513820FFF7C7F907213920FFF7C3F9E2
:1028600040F205113C20FFF7BEF940F608013D207B
:10287000FFF7B9F900215020FFF7B5F9EF215120FA
:10288000FFF7B1F900215220FFF7ADF940F23F11F7
:102890005320FFF7A8F94FF427416020FFF7A3F971
:1028A00001216120FFF79FF900216A20FFF79BF9C2
:1028B00000218020FFF797F900218120FFF793F98D
:1028C00000218220FFF78FF900218320FFF78BF989
:1028D00000218420FFF787F900218520FFF783F985
:1028E00010219020FFF77FF900219220FFF77BF95C
:1028F00003219320FFF777F94FF488719520FFF7B4
:1029000072F900219720FFF76EF900219820FFF758
:102910006AF941F218010320FFF765F940F233111B
:102920000720FFF760F90248FFF746F908BD0000ED
:102930004C0100207CB504460D462C4951F824106A
:102940002B4A52F8242041EA02000121FFF718FA2D
:102950002CB9284951F824000121FFF751FA264BE0
:1029600013F81420254B33F81410254B53F824008A
:10297000FEF7D9FE234B13F81420234B33F8141021
:10298000224B53F82400FEF7CEFE00208DF80600FF
:1029900001208DF8070002208DF804001C4830F853
:1029A0001400009002208DF80500154951F824000C
:1029B0006946FEF770FE02208DF80400154830F8D5
:1029C00014000090114951F824006946FEF763FE97
:1029D000114951F82400294600F068FE0E4951F8CB
:1029E0002400012100F0F9FD7CBD00004CA9000885
:1029F00050A9000848A900085CA9000858A90008C7
:102A0000400100205EA900085AA9000844010020E6
:102A100054A9000856A900083C0100201CB5044632
:102A20000E4951F824000121FFF7AAF90C4830F8AB
:102A30001400009001208DF8040000208DF806009D
:102A400001208DF8070002208DF80500054951F896
:102A500024006946FEF71FFE1CBD00000CA90008FB
:102A600004A9000820010020034931F81010034A8E
:102A700052F820205183704704A90008200100204B
:102A8000034931F81010034A52F82020118370478F
:102A900004A90008200100207047000001490860D7
:102AA00070470000DC0027420CB500200190009028
:102AB0003448006840F480303249086000BF314833
:102AC000006800F4003000900198401C01900098CC
:102AD00018B90198B0F5A04FF1D12A48006800F468
:102AE000003010B10120009001E00020009000981B
:102AF000012846D123484030006840F080502149E9
:102B0000403108602048006840F440401E49086099
:102B10001C48083000681B490831086008460068F6
:102B200040F4004008600846006840F4A050086087
:102B30001648091F0860081F006840F08070091FD0
:102B4000086000BF0F48006800F000700028F9D04E
:102B500040F205700E4908600A480830006820F00D
:102B600003000849083108600846006840F0020088
:102B7000086000BF03480830006800F00C00082817
:102B8000F8D10CBD003802400070004019544007D5
:102B9000003C024010B500F0A5FC00F09BFC10BD0D
:102BA00010B51548006840F47000134908601348D8
:102BB000006840F001001149086000200F49083109
:102BC00008600E4800680E4908400C4908600D482E
:102BD000091D0860081F006820F48020091F086094
:102BE000002006490C310860FFF75EFF4FF00060DF
:102BF00001498039086010BD88ED00E000380240CE
:102C0000FFFFF6FE1030002410B50121880700F008
:102C1000E8F840B10121880700F008F80248007880
:102C2000401C0149087010BD75000020CA43028293
:102C3000704721B1028842F00102028004E002885C
:102C40004FF6FE731A4002807047000010B504462C
:102C50005548844208D101210846FFF701F90021B7
:102C60000120FFF7FDF89DE0B4F1804F08D101216C
:102C70000846FFF7D5F800210120FFF7D1F891E0D1
:102C80004A48844208D101210220FFF7C9F80021F7
:102C90000220FFF7C5F885E04548844208D10121AC
:102CA0000420FFF7BDF800210420FFF7B9F879E010
:102CB0004048844208D101210820FFF7B1F80021E3
:102CC0000820FFF7ADF86DE03B48844208D10121B0
:102CD0001020FFF7A5F800211020FFF7A1F861E010
:102CE0003648844208D101212020FFF799F80021BD
:102CF0002020FFF795F855E03148844208D10121A2
:102D00000220FFF7ADF800210220FFF7A9F849E003
:102D10002C48844209D101210804FFF7A1F80021C1
:102D20004FF48030FFF79CF83CE02748844209D1FB
:102D300001214804FFF794F800214FF40030FFF719
:102D40008FF82FE02148844209D101218804FFF740
:102D500087F800214FF48020FFF782F822E01C481A
:102D6000844208D101214020FFF75AF80021402079
:102D7000FFF756F816E01748844208D10121802059
:102D8000FFF74EF800218020FFF74AF80AE01248CA
:102D9000844207D101218015FFF742F80021A015D8
:102DA000FFF73EF810BD00000000014000040040A5
:102DB00000080040000C00400010004000140040DB
:102DC000000401400040014000440140004801402F
:102DD00000180040001C0040002000400146486AE6
:102DE000704730B50246002000230024158A05EA0A
:102DF0000103958905EA010413B10CB1012000E03B
:102E0000002030BD1AB183890B43838102E083899E
:102E10008B43838170474162704700000022028823
:102E2000184B98420ED0184B98420BD0B0F1804FFF
:102E300008D0164B984205D0154B984202D0154B3E
:102E4000984204D14FF68F731A404B881A43124BA5
:102E5000984207D0114B984204D04FF6FF431A40D6
:102E60000B891A4302804B68C3620B880385054BAC
:102E7000984202D0044B984201D18B7A03860123F9
:102E800083827047000001400004014000040040BC
:102E900000080040000C00400010004000140040FA
:102EA0007047704710B504466CB90120FFF792F8DF
:102EB00000BF6120FFF758F80028FAD04FF40070E7
:102EC000FFF7A2F80EE0012C0CD10120FFF76CF8FF
:102ED00000BF4120FFF748F80028FAD04FF4807077
:102EE000FFF792F80120FFF789F80020FFF704FBB5
:102EF000FFF7C4FA0120FFF7FFFA41F23421132053
:102F0000FFF7ECFA10BD000070B504460D4625B978
:102F100018490020FFF768F903E016490120FFF780
:102F200063F91448007860711248407820711148A4
:102F30008078207010480068608025B90F49002013
:102F4000FFF70CF903E00D490120FFF707F90B48E3
:102F5000C078607209484078207208488078E07133
:102F600006480078A071204600F00AF80646E660A0
:102F700070BD00008C000020282800409000002038
:102F8000F0B5034600240025587A00F5FA6240F2B5
:102F9000B270824201DA0020F0BD40F2B2711CE052
:102FA0000846CE1701EB9676B610A1EB86062EB931
:102FB000642691FBF6F706FB171636B94FF4C87670
:102FC00091FBF6F706FB171616B94FF4B77601E03A
:102FD00040F26D163444481C81B29142E0DB01217D
:102FE00021E01046D61702EB9676B610A2EB8606C5
:102FF0002EB9642692FBF6F706FB172636B94FF476
:10300000C87692FBF6F706FB17260EB9012600E0FC
:10301000002606EB4606104F07EB86074E1EBE5DE8
:103020003444481C81B2187A8842DADCD879401ED0
:1030300004440A4804FB00F55879C0EB4016C6EB7F
:10304000002005EB00151879C0EB001005EB80059A
:103050001878054428469FE7A00000208051010011
:103060007FB50446012601210807FEF7C9FE0120AD
:10307000FEF77EFE1320FFF711F9054644F22130DA
:1030800085421AD12F49086014B90020FFF70AFFC2
:103090000020FFF731FAFFF7F1F90120FFF72CFAD2
:1030A0004FF48040FFF718F84FF48000264908607D
:1030B00000216846FFF728FF3DE041F234208542B9
:1030C0001AD12049086014B90020FFF7EBFE002058
:1030D000FFF712FAFFF7D2F90120FFF70DFA4FF4CC
:1030E0008040FEF7F9FF4FF4800017490860002187
:1030F0006846FFF709FF1EE000201249086000261D
:103100002046FFF7CFFE01208DF807008DF806005E
:103110008DF8080000208DF809008DF805008DF865
:1031200004008DF800000021684600F011F841F21B
:1031300034200449086016B9002004B070BD01486D
:103140000068FAE788000020143C01407047000046
:103150007FB504460D46012D54D1E07900F00F00F3
:10316000E179090901EB810100EB4100C0B28DF862
:103170000700207A00F00F00217A090901EB810194
:1031800000EB4100C0B28DF80800607A00F00F003B
:10319000617A090901EB810100EB4100C0B28DF8B1
:1031A0000900607900F00F006179090901EB8101E4
:1031B00000EB4100C0B28DF80500207900F00F004F
:1031C0002179090901EB810100EB4100C0B28DF8C2
:1031D0000400207800F00F002178090901EB81013B
:1031E00000EB4100C0B28DF80000A07900F00F00A4
:1031F000A179090901EB810100EB4100C0B28DF812
:10320000060014E0E0798DF80700207A8DF80800B8
:10321000607A8DF8090060798DF8050020798DF8C5
:10322000040020788DF80000A0798DF806009DF844
:10323000091063294EDC9DF80810E9B39DF80810C9
:103240000C2947DC9DF80710B1B39DF8091001F572
:10325000FA60C11700EB91718910A0EB810149B9A7
:103260009DF8091001F5FA61642291FBF2F302FB6B
:10327000131151B99DF8091001F5FA614FF4C872A4
:1032800091FBF2F302FB131109B9012100E00021C7
:1032900001EB41012E4A02EB81029DF80810491E04
:1032A000515C9DF80720914214DB9DF80510172909
:1032B00010DC9DF8041000E00CE03B290ADC9DF8CE
:1032C00000103B2906DC9DF8061019B19DF8061088
:1032D000072902DD012004B070BD60791D49087026
:1032E0002079487020788870E0791B498870207AAE
:1032F0004870607AC870A07908700020174908608B
:103300001F20486040F2FF3088600846FEF794FFB7
:10331000012D04D10F490120FFF734F803E00D49D6
:103320000020FFF72FF8012D04D10B490120FEF7F3
:10333000C5FF03E008490020FEF7C0FF0848006809
:1033400020B144F221311320FFF7C8F80020C2E772
:10335000A00000208C000020900000204C040020E1
:10336000880000207FB50546002400208DF8070066
:103370000CE0285D30389DF8071001EB810100EB6F
:103380004100C0B28DF80700601CC4B2285D30282F
:1033900002DB285D3928ECDD601CC4B200208DF80A
:1033A00008000CE0285D30389DF8081001EB810121
:1033B00000EB4100C0B28DF80800601CC4B2285D6B
:1033C000302802DB285D3928ECDD601CC4B2002007
:1033D0008DF809000CE0285D30389DF8091001EBEC
:1033E000810100EB4100C0B28DF80900601CC4B23D
:1033F000285D302802DB285D3928ECDD601CC4B272
:1034000000208DF806000CE0285D30389DF806108D
:1034100001EB810100EB4100C0B28DF80600601C99
:10342000C4B2285D302802DB285D3928ECDD601C41
:10343000C4B200208DF805000CE0285D30389DF8FE
:10344000051001EB810100EB4100C0B28DF80500D1
:10345000601CC4B2285D302802DB285D3928ECDD11
:10346000601CC4B200208DF804000CE0285D3038E8
:103470009DF8041001EB810100EB4100C0B28DF812
:103480000400601CC4B2285D302802DB285D3928A6
:10349000ECDD601CC4B200208DF800000CE0285D5B
:1034A00030389DF8001001EB810100EB4100C0B203
:1034B0008DF80000601CC4B2285D302802DB285D56
:1034C0003928ECDD601CC4B200216846FFF740FEDD
:1034D00004B070BD024800680A30014908607047B6
:1034E000000000200448006820B103480068401E26
:1034F0000149086070470000080000200EB5012156
:103500000846FEF77DFC4FF08040FFF79FFB40F23E
:10351000E73001904720ADF800000020ADF808002A
:10352000ADF8020069464FF08040FFF777FC0122BA
:1035300011469007FFF766FC00214FF08040FFF72F
:1035400078FB1C2001F02CF80EBD000010B50548DA
:1035500000F016F900F07F042146024800F015F94A
:1035600010BD00000010014010B502F02FFB10BD8F
:1035700010B504460BE014F8011B074800F005F9EC
:1035800000BF8021044800F034F80028F9D02078EA
:103590000028F0D110BD00000044004010B540F2FA
:1035A0002551084800F032F818B10021084600F013
:1035B000D7FD0821034800F01CF810B1014800F0C5
:1035C000DFF810BD0010014001F40072B2F5007F79
:1035D00000D100BFCA430280704721B1828942F402
:1035E0000052828104E082894DF6FF731A40828185
:1035F000704702460020B1F5007F00D100BF13885C
:103600000B400BB1012000E00020704770B502466E
:10361000002400230025002040F66A16B14200D1A4
:1036200000BFC1F3421501F01F03012606FA03F3A0
:10363000012D02D19689334006E0022D02D1168A6F
:10364000334001E0968A33400C12012606FA04F456
:103650001688344013B10CB1012000E0002070BD89
:10366000F0B50346002400260025002040F66A1726
:10367000B94200D100BF1846C1F3421401F01F0641
:10368000012707FA06F5012C01D10C3004E0022CC9
:1036900001D1103000E014301AB107682F430760E1
:1036A00002E00768AF430760F0BD00002DE9FF4767
:1036B00005460E460024A14600BFA046B08900B1D1
:1036C00000BF2C8A24F44054F08804432C82AC8937
:1036D00041F20C608443B088318908437189084302
:1036E0000443AC81AC8A24F44074B0890443AC82B6
:1036F0006846FEF7C5FB2048854202D01F48854238
:1037000002D1DDF80C9001E0DDF80890A88900F402
:10371000004040B109EBC90000EB091031684900D5
:10372000B0FBF1F707E009EBC90000EB09103168C5
:103730008900B0FBF1F76420B7FBF0F00401200929
:10374000642101FB1078A88900F4004040B13220C8
:1037500000EBC800B0FBF1F000F00700044308E004
:10376000322000EB08106421B0FBF1F000F00F00F4
:1037700004432C81BDE8FF87001001400014014084
:1037800001468888C0F308007047C1F308028280B0
:10379000704770B504460D4680212046FDF740F97C
:1037A00000212046FDF73CF9204600F0D6F970BD17
:1037B0002DE9F04104460E4615460027C4F89453FF
:1037C000C4F89053032140F2111001552B463246A4
:1037D00000212046FDF7FBF83846BDE8F0812DE9D1
:1037E000F04104460E4615460027C4F83C51C4F883
:1037F0003851022140F2111001552B46324600216A
:103800002046FDF731F93846BDE8F0810146002039
:1038100002E0421CD0B2491C0A78002AF9D1704754
:103820002DE9F04104460D4617460026FCB120461E
:10383000FFF7ECFF022101EB400038803A78304678
:10384000711CCEB22A5403223046711CCEB22A54C7
:103850000AE014F8012B3046711CCEB22A54002223
:103860003046711CCEB22A5420780028F1D1BDE830
:10387000F081000070B505460C462DB92246064978
:1038800006A0FFF7CDFF04E02246034903A0FFF79F
:10389000C7FF014870BD00008442002056435020FD
:1038A000436F6E6669670000024612200880014877
:1038B00070470000F000002070B505460C462DB999
:1038C0002246064906A0FFF7ABFF04E02246034963
:1038D00003A0FFF7A5FF014870BD0000844200204F
:1038E00056435020496E746572666163650000003E
:1038F0000246042008800148704700000C010020A7
:1039000070B505460C462246024903A0FFF788FF22
:10391000004870BD8442002053544D6963726F6546
:103920006C656374726F6E696373000070B50546F1
:103930000C462DB92246064906A0FFF771FF04E0A8
:10394000224603490CA0FFF76BFF014870BD000041
:103950008442002053544D3332205669727475618D
:103960006C20436F6D506F727420696E2048532035
:103970006D6F64650000000053544D33322056696A
:10398000727475616C20436F6D506F727420696E34
:10399000204653204D6F64650000000070B5054659
:1039A0000C462DB92246064906A0FFF739FF04E070
:1039B0002246034907A0FFF733FF014870BD00000E
:1039C00084420020303030303030303030353042BA
:1039D000000000003030303030303030303530438F
:1039E00000000000024643200880014870470000A4
:1039F000E80100200246432008800148704700008B
:103A00002B020020FEB5024600200024002502956E
:103A100000954D78012D52D193691D6802951D695D
:103A200000954D6955B9009D25F07F050095009DD5
:103A300025F4C01505F50025009516E08E684D6942
:103A4000B54207D98D684D610E7A009D66F3060573
:103A5000009504E00E7D009D66F306050095009D2F
:103A600025F4C01505F500250095009D1D61D5784C
:103A7000012D06D10F7802F1180555F827500E696F
:103A80006E61029D25F0806505F180650295029DBD
:103A900025F0004505F100450295029D1D60D57891
:103AA000002D59D14D69002D56D00E780125B54015
:103AB0002C4315696D6B2543166975634CE00E78D0
:103AC00002F1540555F826502D6802950E7802F142
:103AD000540555F826502D6900954D695DB90E7A4B
:103AE000009D66F306050095009D25F4C01505F5BB
:103AF000002500950CE08D684D610E7A009D66F3FF
:103B000006050095009D25F4C01505F500250095D6
:103B10000F7802F1540555F82750009E2E61D57894
:103B2000012D06D10F7802F1540555F827500E6982
:103B30006E61029D25F0806505F180650295029D0C
:103B400025F0004505F1004502950F7802F1540576
:103B500055F82750029E2E60FEBD0EB50021019142
:103B6000019921F04041A1F180410191019921F495
:103B7000C01101F500210191019921F07F01183157
:103B80000191019A416D0A61C178012915D1002185
:103B9000009100F2CC51426D5161416D0968009174
:103BA000009921F0004101F1004100914FF0802186
:103BB0000091009A416D0A6000BF0EBD3CB50246FF
:103BC00000200024019400944C78012C0CD10D7835
:103BD00002F1180454F825300D780124AC40009D02
:103BE00064F30F0500950BE00D7802F1540454F8CE
:103BF00025300D780124AC40009D64F31F450095ED
:103C00001C680194019CC4F3C034E4B90D89019C83
:103C100065F30A040194CD78019C65F39344019403
:103C20008D79019C65F399540194019C24F0805492
:103C300004F180540194019C24F4004404F50044F0
:103C40000194019C1C600C78012C08D1D47A34B901
:103C50001469E46B009D2C431569EC6305E014695D
:103C6000E469009D2C431569EC613CBD3CB50246FE
:103C700000200024019400944C78012C0CD10D7884
:103C800002F1180454F825300D780124AC40009D51
:103C900064F30F0500950BE00D7802F1540454F81D
:103CA00025300D780124AC40009D64F31F4500953C
:103CB000019C24F400440194019C1C600C78012CAC
:103CC00008D1D47A34B91469E46B009DAC4315690A
:103CD000EC6305E01469E469009DAC431569EC618F
:103CE0003CBD38B503460A460020002400945478B1
:103CF000012C18D1157803F1180454F825100C681C
:103D00000094009CE40F2CB1009C24F0804404F14A
:103D100080440094009C24F4001404F500140094E2
:103D2000009C0C600EE0157803F1540454F8251043
:103D30000C680094009C24F4001404F50014009412
:103D4000009C0C6038BDFEB505460C4600260027D9
:103D5000002002900190607801287ED1217805F141
:103D6000180050F8210000680290217805F1180031
:103D700050F8210000690190606948B901986FF31B
:103D8000120001900121019861F3DC40019017E0DD
:103D90006169019861F3120001906069401EA16899
:103DA0000844B0FBF1F1019861F3DC400190E07848
:103DB000012805D1019820F0C04000F10050019089
:103DC000227805F1180050F8220001990161E87885
:103DD000012807D1227805F1180050F82200216946
:103DE00041610DE0E07801280AD0606940B1217896
:103DF000012000FA01F72869406B384329694863BC
:103E0000E078012813D12869806800900098C0F3F9
:103E1000002030B9029820F0005000F100500290CC
:103E200005E0029820F0805000F180500290029846
:103E300020F0806000F180600290029820F0004045
:103E400000F100400290227805F1180050F822009D
:103E500002990160E078012800E008E06CD1A08AB6
:103E600083B222782846E16800F068F864E021789F
:103E700005F1540050F8210000680290217805F106
:103E8000540050F8210000690190606950B9A168A0
:103E9000019861F3120001900121019861F3DC4067
:103EA000019013E0A068401E61690844A168B0FB5E
:103EB000F1F1019861F3DC4001900198C0F3C94031
:103EC000A1684843019960F312010191227805F13C
:103ED000540050F8220001990161E878012806D1C8
:103EE000227805F1540050F8220021694161E07800
:103EF00001280ED1607930B1029820F0005000F115
:103F00000050029005E0029820F0805000F18050AF
:103F10000290029820F0806000F180600290029888
:103F200020F0004000F100400290227805F154009A
:103F300050F82200029901603046FEBD2DE9F041A3
:103F400004460026E078B0B900270020DD1C4FEAC7
:103F5000E57805EB98784FEAA80704F1D00555F805
:103F600022C000BF04E00D68CCF80050401C091DC1
:103F7000B842F8D300BF3046BDE8F08100BFFEE78D
:103F800010B50446BCB94FF4E1303C49086000204C
:103F90008880C8804FF4C0600881002088810C2090
:103FA00048810020FEF7C6FC012240F2255134482A
:103FB000FFF756FB5FE03348007920B1012806D0B7
:103FC00002280ED108E000202C49C8800EE04FF4F2
:103FD00040502A49C88009E04FF400502749C88062
:103FE00004E00020FFF7CCFF022010BD00BF2548F1
:103FF000407920B1012806D002280ED108E0002027
:104000001E4908810EE04FF480601C49088109E0D8
:104010004FF4C0601949088104E00020FFF7B0FFA9
:104020000220E2E700BF17488079072802D008285D
:1040300010D103E000201149888010E00F4800896A
:1040400018B900200D49888003E04FF480500B49D7
:10405000888004E00020FFF793FF0220C5E700BF3F
:104060000848006805490860002088810C204881C4
:104070000020FEF75FFC0020B7E700005804002096
:1040800000100140B800002070B505460C461646E9
:10409000042D15D007DC7DB1012D0ED0022D0DD0E1
:1040A000032D3FD10BE0202D0BD0212D1FD0222D31
:1040B00036D0232D36D134E035E034E033E032E041
:1040C00031E02078617840EA0120A17840EA01409F
:1040D000E17840EA0160154908602079087160794B
:1040E0004871A07988710120FFF74AFF1BE00F4853
:1040F000007820700D480088000A60700B48006846
:10410000000CA07009480068000EE07007480079B4
:10411000207106484079607104488079A07102E0FE
:1041200001E000E000BF00BF002070BDB80000202B
:1041300070B505460E4600240BE0295D0748FFF7E1
:1041400024FB00BF80210548FFF753FA0028F9D06F
:10415000641CB442F1D3002070BD00000010014087
:1041600070B504460D4613488079072809D11248D6
:10417000FFF706FB00F07F001049114A12688854CF
:104180000AE00C488079082806D10B48FFF7F8FAB6
:104190000A490B4A1268885409480068401C0849BB
:1041A000086008460068B0F5006F01D10020086083
:1041B000002070BDB80000200010014083450020A1
:1041C000A00100200020704708B54FF4E1301249EB
:1041D000086000208880C8804FF4C06008810020FB
:1041E00088810C2048810020FEF7A4FB012240F2C8
:1041F00025510A48FFF734FA25208DF800000020E9
:104200008DF801008DF8020001208DF8030068464A
:10421000FDF772FD002008BD580400200010014089
:1042200070B505460748046807E02946E068FBF7D3
:10423000FEFF08B9204670BD6469002CF5D100204E
:10424000F9E700008400002010B50C480068002841
:1042500013DD0B480068446909490968C86801F022
:1042600077FC0748006801F073FC054804600348C8
:104270000068401E0149086000BF10BD800000209A
:104280008400002070B52E4804682E480079A0F103
:104290002F06304602F09CFC0546002004E0294A27
:1042A000411D515C2954401C26490979303981420D
:1042B000F5DC002123480079303829542846FFF7DF
:1042C000AFFF002834D16CB100E064696069002858
:1042D000FBD1182002F07CFC60610020616948611C
:1042E000646909E0182002F073FC15490860002099
:1042F000096848611248046813480068401C124964
:10430000086010490979A1F1300002F061FCE06019
:104310002A460EA1E06800F02FF90DA1204600F01A
:104320002BF9002020740DA10648FBF76DFF03E078
:104330000CA10448FBF768FF284601F009FC70BD9A
:10434000840000204C050020800000202573000020
:10435000303030303030303000000000203A204F14
:104360004B000000203A204465766963652068614F
:104370007320616C7265616479206578697374007B
:104380007CB528480468E068FBF74AFF0E3085B228
:1043900003222946012002F005FF2349086009682D
:1043A000486822490A6822A100F0E6F81E48006821
:1043B00021498860214803F07DFE1B48006803F016
:1043C00094F81FE0E068FBF72BFF0E3085B2032264
:1043D0002946012002F0E6FE134908600094237C80
:1043E000E2680968486816A100F0C6F864690E48DA
:1043F000006811498860114803F05CFE0A480068B3
:1044000003F073F8002CDDD1114800791049497987
:10441000CDE900100E48C379027A0EA1154800F0CC
:10442000ABF87CBD840000207800002080000020D4
:104430003C3C32312564000040050020A0040020EF
:104440003C3C32312C25733A25643A257300000038
:10445000240300203C3C32312C262646696E6973C9
:10446000683A253032642530326425303264253094
:10447000326400004C0500202DE9FF412D480079F1
:10448000A0F12F07384602F0A3FB0446002004E009
:10449000284A411D515C2154401C26490979303974
:1044A0008142F5DC00212348007930382154204630
:1044B000FFF7B6FE054620480668002D32D00AE018
:1044C000307C38B91DA0FFF753F8204601F040FBBF
:1044D000BDE8FF817669AE42F2D1287C30B119A0E7
:1044E000FFF746F8204601F033FBF1E71748007963
:1044F00016494979CDE900101448C379027A14A10C
:1045000002A800F039F8012102A805F035FE02AA40
:1045100014A1284600F030F813A0FFF729F8012075
:10452000287402E012A0FFF723F8204601F010FBE8
:1045300000BFCDE734030020840000203C3C323330
:10454000330000003C3C32333200000024030020E2
:1045500025303264253032642530326425303264AF
:1045600000000000257300003C3C323331000000A5
:104570003C3C3233300000000FB4084B10B504A9A6
:1045800002AA039800F0DAF8044602A9002000F01D
:104590006CFC204610BC5DF814FB00006B4E00085C
:1045A000002809DB00F01F0201219140420992001E
:1045B00002F1E022C2F80011704702E008C8121FA1
:1045C00008C1002AFAD170477047002001E001C1FC
:1045D000121F002AFBD170472DE9FF5FDDE90220A1
:1045E000010DDDF838B0024318D044F61050A1F2A6
:1045F000FF3141430D140F98012820D0A5EB0B008B
:10460000401C5FEA000A4FF00004474EDFF81C919F
:10461000A046504616D5CAF1000728E00F9801249D
:1046200043A2012808D0002100980F9BC0E9002177
:10463000C0E90243BDE8FF9F6FEA0B01F4E7CBF14D
:104640000000DEE7074612E0F80707D022463346AF
:1046500040464946FBF7E5FF8046894622463346F9
:1046600010461946FBF7DDFF04460E467F10002F6B
:10467000EAD1DDE90201BAF1000F42464B4602DA07
:10468000FBF7CFFF01E0FBF7EDFD04460E460022ED
:10469000284BFBF763FE03D84FF0FF30014607E0DD
:1046A0000022254B20463146FBF714FFFCF72BF880
:1046B000102409E0002C0ADB0A220023FBF77CFE11
:1046C000019B30321A55641E50EA0102F2D1641C7B
:1046D000019AC4F1110314440F9A012A03D0012254
:1046E00008430DD10AE0084304D000204FF0110B1D
:1046F0000F9080E7A3EB0B056D1E0DE05B4504DD1D
:104700004FF0000205F1010504E003DA4FF000026A
:10471000A5F10105002AECD000980F99C0E90231FB
:10472000C0E9004586E70000000024400000F03F9B
:10473000300000000000F0430000E03F2DE9FF4F93
:1047400095B09B468946064600250FE2252877D17D
:1047500000242746F84A0121059400E0044316F896
:10476000013F203B01FA03F01042F7D130782A28AC
:1047700011D06FF02F033078A0F13002092A16D83B
:10478000059A44F0020402EB820203EB4202104459
:10479000761C0590EFE759F8042B0592002A03DAFE
:1047A000504244F40054059044F00204761C3078E2
:1047B0002E2816D116F8010F44F004042A280DD033
:1047C0006FF02F023078A0F13003092B09D807EBE6
:1047D000870302EB4303C718761CF3E759F8047B01
:1047E000761C30786C280FD006DC4C2817D068284F
:1047F0000DD06A2814D104E0742810D07A280FD183
:104800000DE044F400140AE044F4801401E044F4A0
:1048100040147278824202D104F58014761C761C12
:10482000307866280BD013DC582877D009DC0028B4
:1048300075D04528F6D04628F4D047281AD19DE1F6
:1048400018E0632835D0642879D0652812D195E125
:10485000702873D008DC6728F1D069286FD06E28E3
:104860000DD06F2806D1B5E073282CD0752875D0EF
:10487000782874D05A46179990476D1C75E1C4F397
:104880000250022809D003280DD0D9F800100428BE
:104890000DD00D6009F1040967E1D9F80010EA179D
:1048A000C1E90052F6E7D9F800100D80F2E70D706B
:1048B000F0E719F8041B8DF8001000208DF80100B6
:1048C000EA46012003E059F804AB4FF0FF306107DE
:1048D0004FF0000102D40DE008F101018846B94211
:1048E0000FDA8045F8DB1AF808100029F4D108E047
:1048F00008F1010188468142FADB1AF80810002904
:10490000F6D105985B46A0EB080721463846179A72
:1049100000F094FA284400EB080507E04DE029E197
:104920000DE01AF8010B5A4617999047B8F10108A3
:10493000F7D25B4621463846179A13E142E00A2235
:104940000092C4F302524FF0000A022A08D059F82C
:1049500004CB032A4FEAEC710AD00DE029E02AE0EB
:1049600009F1070121F00702F2E802C1914609E0CE
:104970000FFA8CFC4FEAEC71042A03D14FFA8CFC3D
:104980004FEAEC71002907DA0A460021DCF1000C3D
:1049900061EB02012D2202E0220504D52B228DF8C5
:1049A0000420012203E0E20701D02022F7E790462D
:1049B00059E00A2102E010220DE010214FF0000A18
:1049C00000910BE010224FF0000A44F00404082785
:1049D000009203E008224FF0000A0092C4F3025252
:1049E000022A05D059F804CB0021032A08D009E097
:1049F00009F1070121F00702F2E802C1914605E042
:104A00001FFA8CFC042A01D10CF0FF0C4FF00008B7
:104A1000220728D5702806D0009B83F0100353EAA4
:104A20000A0305D00EE040228DF80420012208E0A0
:104A30005CEA010206D030228DF804208DF80500D2
:104A400002229046009B83F0080353EA0A030AD12E
:104A50005CEA010201D1620705D530228DF80420FD
:104A60004FF001087F1E582804D034A003900EA8F0
:104A700002900DE036A0F9E753466046009AFBF736
:104A80009BFC84460398825C0298401E0290027050
:104A90005CEA0100F0D1029806A9081A00F1200A88
:104AA000600702D524F4803400E00127574502DD79
:104AB000A7EB0A0000E0002000EB0A010090059837
:104AC0004144401A0590E00306D45B462146179AFC
:104AD000059800F0B3F90544002706E001A85A46FE
:104AE000C05D179990476D1C7F1C4745F6DBE003BE
:104AF0000CD55B462146179A059800F09FF90544AE
:104B000004E030205A46179990476D1C0099481EC2
:104B100000900029F5DC08E0029802995A460078D6
:104B2000491C0291179990476D1CBAF10001AAF136
:104B3000010AF1DC65E1000009280100303132335F
:104B400034353637383961626364656600000000C9
:104B500030313233343536373839414243444546B3
:104B60000000000000F058F90544761C3078002859
:104B70007FF4ECAD19B02846BDE8F08F620700D491
:104B8000062709F1070222F0070CFCE80223E146A0
:104B900003F000485FEA080C02D00FF2702C0DE021
:104BA0005FEA045C02D50FF2682C07E05FEAC47C80
:104BB00002D00FF2602C01E0AFF2700C4FF0FF3822
:104BC00023F00043CDF850C065280CD006DC452802
:104BD00009D046281DD047283DD13DE0662818D091
:104BE00067287ED138E00021112F01DB112000E081
:104BF000781CCDE9000106A90EA8FFF7EDFCDDE960
:104C00000F010E9A03910021009207F1010A04910D
:104C10004DE04FF000400097CDE9011006A90EA825
:104C2000FFF7DAFCDDE90F0203920E9B11990022D7
:104C3000DDF80CA00093049211B9791C00EB010A75
:104C4000B7EB0A0004D4C0F1FF3007F1010A049069
:104C5000AAEB0700019044E0012F00DA01270021B0
:104C6000112F01DD112000E03846CDE9000106A931
:104C70000EA8FFF7B1FCDDE90F010E9A03910021A8
:104C800004910092BA4621070CD40399514500DAE9
:104C90008A46BAF1010F05DD009AAAF10101515CC3
:104CA000302908D0B84202DA10F1040F06DA0121E7
:104CB000CDE9011015E0AAF10101E9E7002805DCC2
:104CC000049901440491AAEB000102E0411C514502
:104CD00000DD8A460499401A401C01904FF00040C4
:104CE0000290200704D40198504501DBCDF80480E0
:104CF00000208DF84F0002980DF14F07B0F1004FE2
:104D000025D02B200E9002984FF0020800280CDAD4
:104D1000404202902D200E9007E00A210298FBF7F6
:104D200035FB3031029007F8011DB8F10001A8F100
:104D30000108F2DC02980028EFD1791E0E98087065
:104D4000307800F0200040F0450007F8020D12A86E
:104D5000C01B00F107081498007800B1012000EB97
:104D60000A01019801EBE07105984144401A401E88
:104D70000590E00306D45B462146179A059800F09B
:104D80005DF805441498007818B15A461799904771
:104D90006D1CE00324D55B462146179A059800F068
:104DA0004DF805441CE00498002807DBDDE9030109
:104DB000884203DD0098405C179901E01799302084
:104DC0005A469047049805F10105401C049001984B
:104DD000401E019004D12E205A46179990476D1C11
:104DE000BAF10001AAF1010ADDDC05E017F8010BB8
:104DF0005A46179990476D1CB8F10001A8F10108B7
:104E0000F4DC5B462146179A0598ABE62D000000BE
:104E10002B000000200000002DE9F0410446002591
:104E20001E461746880404D405E039462020B047C2
:104E30006D1C641EF9D52846BDE8F0812DE9F041CE
:104E4000044600251E469046C80301D5302700E0E1
:104E50002027880404D505E041463846B0476D1C3C
:104E6000641EF9D52846BDE8F0810A68531C0B6022
:104E7000107070471FB504460122074B606ACDE9E8
:104E8000000304F12B03CDE90202044A194620462F
:104E900000F076FC04B010BD62D300085CD30008BB
:104EA0007FB504460D46606A002850D0606A0079DC
:104EB00000284CD094F82B008DF800002C20005DC9
:104EC0008DF801002D20005D8DF802002E20005D80
:104ED0008DF803002F20005D8DF804003020005D68
:104EE0008DF80500D5F80E000390A8690290606A5D
:104EF0000079012806D0606A0079022817D1606A1B
:104F00004079A0B90398616A096888420BD0029879
:104F1000616A0968884219D1062205F108016846CC
:104F2000FBF793F990B1204600F05BF80EE0039890
:104F3000616A0968884209D1062205F108016846BC
:104F4000FBF783F910B1204600F034F800BF7FBDB5
:104F50002DE9F04105460E462F214A5D3021495D7D
:104F600042EA0121104A881800F050FE074602F07C
:104F70000DF90446686A407A0444A0B20B4940EA3D
:104F800001040948844201D204F57E440848844261
:104F900001D9A4F57E4400BF00BF204600F036FED4
:104FA0003060BDE8F08100000001FEA90000FEA90C
:104FB000FFFEFEA970B50446012575B1606A007A4E
:104FC000002803DD204600F00CF809E02046FFF73A
:104FD00051FF6420616A087202E0204600F001F887
:104FE00070BD70B505466C6A0026284602F044F88C
:104FF00010B1284602F060F800206860A860E86000
:105000006CB90A2001F074FE044614B94FF0FF3069
:1050100070BD00202060606020816C6205E000208F
:105020002071E08060712060207221462846FFF7E1
:105030008FFF607A401C6072284600F002F830460C
:10504000E6E710B5416A01220A7100224A71302256
:10505000125C13062E22125C43EA02432D22125CDC
:1050600043EA02222F231B5C1A43436A13B1436AAB
:105070005B7A00E000231A440A23B2FBF3F403FB3B
:105080001422CA804A7A0A2A02DD4FF41672CA80B4
:1050900010BD000001B581B00020009005490198C5
:1050A0004843009002E00098401E009000980028BD
:1050B000F9D10CBDA086010070B504460D4600BFB5
:1050C00004B970BD00BF206A58B1206A807C0828EE
:1050D00007D12868216A896A884202D1204600F0F7
:1050E00099F800BFEDE7000070B5064600BF16B99D
:1050F0006FF0090070BD00BF346A00BF14B96FF0D3
:105100000800F7E700BF00BF00BF00BF00BF0022DC
:105110004FF49A71104602F045F86061606910B969
:105120004FF0FF30E6E700BF00BFE07C20B9374812
:105130000068401C35490860344800682060606998
:105140004068A0610120A1690870A169487006202B
:10515000A16988700020A169C870206800F056FD20
:10516000A16948600020A1690881A1694881A169FD
:10517000C860A07C0A2805D0A07C052802D0A07CAD
:10518000042802D17068A169C8600020A169086183
:10519000A1694861A169886100250DE096F82A009F
:1051A000A84203DD06F12B00405D00E00020A1696C
:1051B0001C314855681C85B2102DEFD3002505E041
:1051C0000021A0692C304155681C85B2402DF7D3D1
:1051D000002505E00021A0696C304155681C85B2AE
:1051E000802DF7D30A4800F011FDA169C1F8EC0049
:1051F0000020A083002504E0A069F0304555681C1C
:1052000085B2442DF8D3002074E70000740200201A
:10521000635382632DE9F84305462C6A00260C216E
:10522000204600F0B5F82846FFF75EFF064646BB6D
:1052300001223521204600F04EF80421204600F0DE
:105240005AF804223221204600F045F8A06A01F005
:105250009DFF80464146204600F056F8204600F06B
:1052600074F8A28BF03291B2606902F0B4F9009543
:1052700043230B4A6169606805F018F9284600F07D
:1052800011F8E07C401CE07442F2107707F2F31052
:105290004FF4FA7190FBF1F0E0833046BDE8F883FB
:1052A00058D3000870B5054600BF05B970BD00BFF2
:1052B0002C6A00BF04B9F9E700BF00BF00BF00BF00
:1052C00000BF606910B1606902F00FF900206061F1
:1052D000A06100BFEAE710B500BF00BF848B631C6C
:1052E00083838369F0331955848B631C83838369BB
:1052F000F0331A5510BD00BF00BF838B5A1C828348
:105300008269F032D154704710B500BF00BF0B0E58
:10531000848B621C82838269F0321355C1F3074388
:10532000848B621C82838269F0321355C1F3072398
:10533000848B621C82838269F0321355848B621CD9
:1053400082838269F032115510BD00BF00B97047E9
:1053500000BF00BF00BF00BF00BFFF22838B591CEE
:1053600081838169F031CA5408E000BF00BF002288
:10537000838B591C81838169F031CA54818B442904
:10538000F3D3017F01F003010029EED100BFDEE776
:10539000827C8A4202D081740022C274704700006D
:1053A0002DE9FC5F06468946174600BF0EB9BDE8E9
:1053B000FC9F00BF78892A2803DA384602F095F866
:1053C000F5E7D7F8048008F10E04012000F02BFC6B
:1053D0002188884215D140F2046000F024FCA188A5
:1053E00088420ED14FF4006000F01DFC61888842B5
:1053F00007D140F6060000F016FCB8F80C10884201
:1054000003D0384602F071F8D1E721463046FFF765
:1054100047FDD4F80E000190A0690090706810B9A3
:105420004FF0000A07E000987168884201D101201E
:1054300000E000208246BAF1000F07D0012304F1FA
:10544000080201A9304605F097F806E0002304F1B0
:10545000080201A9304605F08FF8E08800F0E3FB70
:10546000012802D002283ED138E0BAF1000F33D033
:10547000022000F0D8FBE080D4F80E00A061706834
:10548000C4F80E0000BF00BF0625706A20B1706A24
:10549000007908B1174801E004F10800834614E0E0
:1054A000681EC5B204F10800415D0A3041551BF881
:1054B000050008F8050019F8051004F10800415529
:1054C00019F8051008F106004155002DE8DC3946B1
:1054D0003046B269904700E000BF05E001A93046C0
:1054E000FFF7EAFD00E000BF00BF384601F0FDFF16
:1054F00000BF5CE75CD300082DE9F04104460F468D
:1055000000BF0CB9BDE8F08100BF7D6805F10E0653
:10551000F068A1680840D4E901121140884200D027
:10552000F0E70023AA1D06F10C01204605F024F83F
:1055300000BFE7E72DE9FC4104460E4615460E2163
:10554000304602F009F818B16FF00100BDE8FC81A7
:1055500000272146284600F0B1FC08B1254F40E065
:105560004FF0704001F012FE296800EA01084FF088
:10557000604001F00BFE80451DD101208DF8000038
:1055800000208DF801005E208DF80200286801F0EF
:10559000FDFDC0F306408DF80300286801F0F6FD1C
:1055A000000A8DF80400286801F0F0FDC0B28DF803
:1055B00005006F4615E02868A1680840D4E901128B
:1055C0001140884207D0E06810B104F10C0502E0F8
:1055D0006FF00300BAE732462946204600F00CF887
:1055E000B4E73B4604F12B023146204600F04AF96D
:1055F000ACE700005CD300082DE9F84F81460F4668
:10560000164609F12B0A4FF0FF3000904946384604
:1056100000F054FC78B94FF0704001F0B7FD3968E4
:1056200000EA01054FF0604001F0B0FD854202D074
:105630000FB1386818B96FF00900BDE8F88F012183
:10564000384600F08FF90446002C01DA2046F4E7D2
:1056500004EB8400494901EB8000807B30B90120D4
:1056600004EB8401454A02EB8101887300BF00BF4F
:1056700004EB8400414901EB8000807B012800D0CD
:105680002EB93946484600F0E7F8009000BF002EDA
:1056900071D004EB8400394901EB8000807B022843
:1056A0000CD104EB840001EB800000F108035246AA
:1056B0003146484600F0E6F800905CE004EB8400D8
:1056C0002E4901EB8000807B012854D14FF0000B64
:1056D000354608E000BF00BF287B012802D04FF00C
:1056E000010B02E02D68002DF4D100BFBBF1000FCB
:1056F00010D029890022032001F054FD05466DB128
:105700003146284601F04DFE40B1284601F0EDFE3D
:10571000002503E03546284601F099FF55B30620E1
:1057200001F036FC8046B8F1000F1FD00020C8F809
:105730000000C8F8045004EB8400104951F8200020
:1057400060B104EB84010D4A52F8210000E00068CA
:1057500001680029FBD1C0F8008004E004EB84005C
:10576000064941F820800020009002E0284601F020
:10577000BCFE00BF00BF00985FE700001CC900200E
:105780002DE9FF4F83B0074689469A46DDF840B0C1
:105790000020029000222A21032001F003FD804610
:1057A000B8F1000F04D14FF0FF3007B0BDE8F08F23
:1057B00000BF00BFD8F8046006F10E05139800F092
:1057C00032FAE88000BF00BF0624786A20B1786A08
:1057D000007908B11F4800E00598019012E0601EB2
:1057E000C4B21AF8041005F1080001551198015DC2
:1057F00005F1120001550198005D305519F80410AB
:10580000B01D0155002CEADCDBF80000C5F80E00E5
:1058100012980068A861012000F005FA28804FF472
:10582000006000F000FA688040F2046000F0FBF9CC
:10583000A88040F6060000F0F6F9B08141463846EF
:10584000BA6990470290404601F04FFE4FF00008C1
:105850000298AAE75CD300087FB504460D460121F3
:10586000064A201D04F12B038DE825000391044A0C
:1058700019462046FFF784FF04B070BD62D30008CC
:105880005CD300082DE9F04706460F46904699463E
:105890007D6800BF00BF062408E0601EC4B219F88E
:1058A0000400285518F80410A81D0155002CF4DC3C
:1058B0004FF4006000F0B7F9A88139463046B2696C
:1058C0009047BDE8F0872DE9F04104460D46666833
:1058D000B08900F0A8F90746B7F5006F03D0A7F626
:1058E0000600E8B915E021462846FFF705FE6FF0EF
:1058F0000D01204601F030FE30B100BF00BF204650
:1059000001F0F3FD002403E02946204600F0A4FB4B
:105910000BE0224605F12B012846FFF741FD04E08C
:10592000204601F0E2FD002400BF00BF0020BDE8DA
:10593000F081000010B5044600BF00BF732084F85A
:105940003200742133200155044860610448A0618D
:10595000204600F0B5FF002010BD000035550008BE
:10596000416900082DE9FC5F05460F464FF00A0823
:10597000C1460A260024A34600200190B2460090AA
:10598000CDB17148007800EB8000704901EB8000D8
:10599000807B02280FD128686B49097801EB8101CF
:1059A0006A4A02EB81014968884204D1664800785E
:1059B00040B2BDE8FC9F002473E00A2E08D104EB3E
:1059C0008400624901EB8000807B08B966B266E022
:1059D00004EB84005D4901EB8000807B012836D117
:1059E00065B1286804EB8401584A02EB81014968DB
:1059F000884203D15448047060B2DAE704EB8400B3
:105A0000524951F8200088B104EB840001EB80007A
:105A1000C17B0098814242DB4FFA84FA04EB840098
:105A20004A4901EB8000C07B009038E004EB840021
:105A3000464901EB8000C07B584530DB4FFA84F8C3
:105A400004EB840001EB800090F80FB027E004EB3A
:105A500084003E4901EB8000807B02281FD165B1A4
:105A6000286804EB8401394A02EB810149688842C5
:105A700003D13548047060B29BE704EB84003349DE
:105A800001EB8000C17B0198814208DB4FFA84F969
:105A900004EB84002D4901EB8000C07B0190601C69
:105AA000C4B20A2C89DB0A2E02D107F0010010B122
:105AB00007F0020010B14FF0FF307AE70A2E01DA4A
:105AC000F4B222E0B9F10A0F03DA09F0FF0400BFD3
:105AD0001BE0B8F10A0F02DA08F0FF0415E0BAF192
